:400000000080002011000000BD000000BD00000008B5044B1A6803F53F5302331A6000F04FF800BFFA46004010B5054C237833B9044B13B10448AFF300800123237010BDB6
:400040003081FF1F00000000A4110000084B10B51BB108480849AFF300800848036803B910BD074B002BFBD0BDE81040184700BF00000000A41100003481FF1F0881FF1F87
:400080000000000008B562B600F002FF00F070FF00F01EFB0748002100F066FB0C20052100F02EFB044B1B68002BFBD00022024B1A60F7E7A81100004C81FF1FFEE700BF0F
:4000C00008B5104E104D16E029686B68AC68002204E051F8040B43F8040B0432A242F8D1E868002203E0002143F8041B04328242F9D11035013E002EE6D101F011F8FFF7A2
:40010000C1FFFEE7010000009C15000008B5134A134B1A60134A136843F40073136000230AE0032B03D8104A52F8231000E00F490F4A42F8231001332F2BF2D90D4B1A7853
:400140000D4B1A700A4A0D4B1A6000F0B9F800F0ABFB00220A4B1A6008BD00BF0004FA050CED00E014ED00E000000000BD0000000080FF1FBC7600400481FF1F08ED00E0C9
:400180000081FF1FFEE700BFF0B40022174611E050F82760F3B226F0FF0608E001EB420511F812406D78A5550132013BDBB2002BF4D101371C2FEBD9F0BC7047064B1B788A
:4001C000DBB203F00701054A11701B09013213704422034B1A707047CF0100496E5800407658004008B50A46002100F0CAFF08BD38B54FF49C72284B1A80182202331A70BB
:4002000046F2A71202331A80192502331D70022203F27A231A7008224FF040231A70032203F500731A701D4B1B78DBB21C4A137010221C4B1A8041F25122023B1A80002409
:400240000CE0194B1B7803F0010343EA440404F003044FF4F07000F017FB013D0DB1032CEFD115B90320FFF78DFF104B4FF480721A8007221A7000220D490A7048200231C7
:4002800008701A700222033B1A700A4A137843F00303137038BD00BF8040004008010049A146004022420040254200400440004006400040A243004008B500F057FF08BD46
:4002C00038B572B63F4A137843F00403137000240CE03D4963001A1952000A4423445B00C8589188FFF77EFF0134E4B2052CF0D94FF090403549FFF747FF2022344B1A7005
:4003000034480421FFF76EFF334834490422FFF7D3FF33480421FFF765FF32480421FFF761FF314831490422FFF7C6FF304A137843F0020313701032137843F002031370C8
:400340002C4C237843F040032370A2F58632513A137843F010031370274828490822FFF7ABFF274827490822FFF7A6FF264827490A22FFF7A1FF264826490822FFF79CFFAD
:40038000254826490822FFF797FF254825490822FFF792FF244A137843F008031370234D61232B70FFF724FFC1232B700122204B1A70FFF703FF1F4821460E22FFF77CFFBF
:4003C00038BD00BFE8460040B411000074000048126000400076004008760040080400481076004018760040207600400C04004803500140A043004002510040D4030048B5
:40040000C2510040DC030048F0510040E403004812510040F003004822510040F80300483251004000040048224300400048004004000840B043004070B50120014641F63F
:40044000FF724FF4804300F0E1F96A4B1870FF2808D13BE000F0BAFA664B234418710134E4B200E00024092CF4D9002415E014F0010F08D15F4B1A191079012152790B4623
:4004800000F0BEFA07E05B4B1A191079012152790B4600F0B5FA0134E4B2082CE7D9554B587B01211A790B4600F0AAFA00240BE0504B234450492144187989B246F27542D8
:4004C00000F0B2FA0134E4B2092CF1D90120014641F6FF724FF4804300F0B6F9454B9873FF280FD164E000F071FA424D2544287400F06CFA287600F069FA85F820000134F3
:40050000E4B200E00024042CEDD9002418E0394E3519287C01212A7E212300F071FA287E012195F82020212300F06AFA0134264495F820000121327C052300F061FAE4B2DB
:40054000032CE4D92B4C207D0121227F212300F057FA207F012194F82420212300F050FA94F824000121227C052300F049FA00241CE0204D254421492144287C89B246F27D
:40058000795200F051FA1E492144287E89B246F2744200F049FA1B49214495F8200089B246F2755200F040FA0134E4B2042CE0D90120014641F6FF724FF4804300F070FA69
:4005C0000C4B83F82500FF2812D000F0FFF90246084C84F826000521012300F011FA04F1280194F8260089B246F2275200F01CFA70BD00BF5881FF1F0C81FF1FC481FF1FDD
:40060000D481FF1FCC81FF1F10B50E4C2078217900F0ACF9A07B217C00F0A8F994F8250094F8261000F0A2F92078012100F056F9A07B012100F052F994F82500012100F07B
:400640004DF910BD5881FF1F08B5FFF7DDFF0023054A13701032137001234D321370034A82F82D3008BD00BF176500405881FF1F002308E000220549CA540549CA54054953
:40068000CA540133DBB2042BF4D97047C481FF1FD481FF1FCC81FF1F08B5FFF7E9FF0B4B93F82E302BB9FFF7C7FE0122074B83F82E20002306E0054A1A44FF2182F8281028
:4006C0000133DBB2042BF6D908BD00BF5881FF1F08B5064B93F82F302BB9FFF7DDFF0122024B83F82F20FFF7AFFF08BD5881FF1F00F00F00014B185C704700BFD81100005A
:4007000010B50C46042904D8FFF7F2FF0A4B185510BD092906D84C1FE4B2FFF7E9FF074B185510BDA1F10A04E4B2042C03D8FFF7DFFF034B185510BDC481FF1FD481FF1F35
:40074000CC81FF1F00F00F0300090238C0B2052805D8044A02EB00100344187C70470020704700BFD8110000F8B505460C46042914D800F00EFD204400F0FF0700260AE029
:40078000BC4206D2A85DFFF7DDFF1D4B18550136F6B20134E4B2042CF2D9F8BD092917D800F0F7FCC0B20719053FFFB2053CE4B200260AE0BC4206D2A85DFFF7C3FF114BFC
:4007C00018550136F6B20134E4B2042CF2D9F8BD00F0DFFCC0B207190A3FFFB20A3CE4B200260AE0BC4206D2A85DFFF7ABFF064B18550136F6B20134E4B2042CF2D9F8BD5C
:40080000C481FF1FD481FF1FCC81FF1FF0B583B086460F4616461D460A4C0320207000230093019371463A4600F0ACF8207831462A4600F081F82078022100F06BF8207813
:4008400003B0F0BD1C81FF1FF0B583B086460F4616461D460B4C04232370002200920192184671463A4600F08DF8207831462A4600F062F82078022100F04CF8207803B040
:40088000F0BD00BF1D81FF1F0230800803D000BF01380046FCD17047EFF3108072B6704780F31088704700BF0B4A7F2313708021517007E0DA0002F1804202F5F042013B38
:4008C000DBB21370002BF5D1DB0003F1804303F5F04300221A7070472081FF1F172815D831B103010A495A5C42F020025A5405E0030107495A5C02F0DF025A540001044A3C
:40090000835C43F00103835400207047012070471070004017280BD80001064A835C03F0F10301F0070143EA4101815400207047012070471070004041F6FF73994201D120
:400940004FF4005141F6FF739A4201D14FF40052172808D8C00000F1804000F5EC408180C280002070470120704700BF172805D8034B03EB001041720020704701207047CB
:400980001070004017281BD810B4C00000F1804404F5EC44D201D2B201F07F01114321709DF804201201D2B203F00F03134363709DF8083003F00F03A3700020E07001E082
:4009C000012070475DF8044B704700BF10B5FFF763FF0A4B5B78182B0BD9084A1478013B5370E30003F1804303F5F0431B78137000E0FF24FFF754FF204610BD2081FF1FA3
:400A000010F0800F0CD111F4704F0BD1C00000F1804000F5F04001808270C37000207047012070470120704710F0800F08D1C00000F1804000F5F0408180C28000207047CF
:400A40000120704701BE704770B504460E46074B1D681F2802D90020FFF7F4FF04F01F04103455F8240045F8246070BD08ED00E038B504460D46072902D90020FFF7E2FF48
:400A80001F2C02D90020FFF7DDFF04F01F0000F1604000F564406D01EDB2057038BD00BFF0B583B084468E4617461E460B4C02252570002300930193284661467246FFF754
:400AC00061FF207839463246FFF736FF20782946FFF720FF207803B0F0BD00BF2881FF1F08B5134A136823F0010313604FF4F05300E0013B23B10E4A126812F0010FF8D100
:400B00009BB14FF480320B4B1A60FFF7C5FE0A4A137803F0FE0313701032137803F0FE031370FFF7BDFE002008BD012008BD00BF10A0004080E100E0A6430040064B1A78D9
:400B400042F001021A701B7813F0010F01D1012070470020704700BF04A0004008B5FFF79BFE154A137843F0010313701032137843F001031370FFF793FE41F201220F4B3E
:400B80001A60FFF7DBFF4FF480320D4B1A600D4A136843F0010313604FF4107300E0013B23B1084A126812F0010FF8D00BB9012008BD002008BD00BFA643004000A00040F5
:400BC00000E100E010A00040064B1A7802F0FE021A701B7813F0010F01D0012070470020704700BF04A0004010F4004F07D1064B18801B889BB2834203D001207047022086
:400C000070470020704700BF16A0004050B90D4B5A7802F0EF025A705B7813F0100F0CD001207047074B5A7842F010025A705B7813F0100F03D1012070470020704700201E
:400C4000704700BF14A0004030B4841EE4B20D2C28D88C1EE4B2052C02D92BBB012925D1032A25D8824225D88A4225D8164C657805F0F005284360706478E4B284421DD125
:400C80000BB9002000E002204B01DBB29200D2B2134303430C4A13701278D2B29A420FD001200EE002200CE002200AE0022008E0022006E0022004E0022002E0012000E0DB
:400CC000002030BC704700BF14A0004050B90D4B1A7802F0EF021A701B7813F0100F0CD001207047074B1A7842F010021A701B7813F0100F03D101207047002070470020AB
:400D0000704700BF14A0004050B90D4B1A7802F0FE021A701B7813F0010F0CD001207047074B1A7842F001021A701B7813F0010F03D101207047002070470020704700BF1E
:400D400014A00040044B18801B889BB2834201D0012070470020704704A0004003785B01214A416841F08011995003785B0199189A5802F07F12436823F080139A4228D1C6
:400D800083680B610278184B03EB421319698268914220D1C2685A610278134B03EB42135969C268914218D14FF0FF329A6102780D4B03EB42139A69B2F1FF3F0FD100227E
:400DC000DA610278084B03EB4213DB694BB101207047012070470120704701207047012070470020704700BFA0A0004001780901114A436843F4000343F008038B500378C3
:400E00001B0199189B580D4A1A40436823F4000323F008039A420BD183684B600278064B03EB02135A6883689A4203D001207047012070470020704720A00040F7007F00E9
:400E400038B5002409E004EB44039B000E481844FFF7CCFF28B90134E4B2072CF3D9002500E001254DB10DE0084800EB0410FFF775FF30B90134E4B200E000240F2CF3D9FB
:400E800000E00125284638BD181400007814000008B5FFF701FD324A137843F0010313701032137843F001031370FFF7F9FC2D4A137803F0FE0313704FF4F05300E0013B12
:400EC00023B1284A127812F0010FF8D1002B3CD04FF48032244B1A6010202449FFF7B4FD10200721FFF7C4FD0320FFF77DFE88B9FFF78CFE80B9062003210A460023FFF79E
:400F0000A3FE58B9FFF7E2FE50B9FFF7FDFE48B1012308E0012306E0012304E0012302E0012300E0002393B9FFF78AFF88B941F20120FFF707FF70B90A4B00221A701B78D2
:400F400013F0010F09D0012008BD012008BD012008BD012008BD012008BD002008BD00BFA643004010A0004080E100E02910000008B5074B1B7813B9FFF78AFF00E00020E3
:400F800020B90122024B1A70FFF7E8FD08BD00BF8881FF1F08B50222034B5A70FFF714FEFFF79EFD08BD00BF00A0004038B510221A4B5A70012500242CE0194B1B881D42D8
:400FC00024D06301174A9B5C13F0200F1ED015F03F0F18D0052C19D8DFE804F00306090C0F1200F041F811E000F046F80EE000F077F80BE000F07CF808E000F081F805E0B0
:4010000000F086F802E0204600F020F86D00ADB20134E4B20F2CD0D938BD00BF00A0004008A00040A0A0004008B5074B5B7813F0020F01D0FFF7AEFF034B5B7813F0100FCE
:4010400001D0FFF7B3FF08BD00A000404001054BC25C12F0010F03D0C25C42F00102C254704700BFA0A00040024A137843F0010313707047A0A000400122124B1A60124B40
:40108000987800F00F00114B18600022104B1A600EE0032B02D9C3F10B0101E0C3F103010C4A515C0C4A42F823100133084A1360074B1B689842ECD8084A137843F00103C0
:4010C000137070474C81FF1FA0A000405081FF1F8C81FF1FA8A00040A481FF1FC0A00040024A137843F0010313707047E0A00040024A137843F001031370704700A1004095
:40110000024A137843F001031370704720A10040024A137843F001031370704740A100400E4B70B51E460E4C0025E41AA410A54204D056F8253098470135F8E700F01CFA92
:40114000084B094C1E46E41AA4100025A54204D056F8253098470135F8E770BD8415000084150000841500008C15000010B5431E0A44914204D011F8014B03F8014FF8E707
:4011800010BD03460244934202D003F8011BFAE77047034613F8012B002AFBD1181A013870470000000000002D2050536F43202D00000000405100403000000001400010A4
:4011C00000140140000800400140000A004C014000020050014020003F065B4F666D7D077F6F777C395E7971000000000000000000000000004080003F065B4F666D7D0719
:401200007F6F00000048000000777C585E79713D74101E763855545C7367506D781C1C1D766E5B000000000800777C585E79713D74101E763855545C7367506D781C1C1D1F
:40124000766E5B0000000000240000000000000000000012001200003F06DBCFE6EDFD07FFEFF78F390FF9F100000200000000000C213F00200000002400000000000000C9
:40128000000000000000001000001200120000000012000C0005090000080800120024282D1524000000000000000000000000000010000C12100000000800001200201072
:4012C0002D1524000000000000302000000000200000C00000C000003F06DBCFE6EDFD07FFEF000000C8008300F78F390FF9F1BDF6091E703836363FF33FF3ED013E3036FD
:40130000000009000000000800F7FCD8DEF9F1EFF4001E7000D4D4DCF33FD0EDC01C101C000009000000000090000303030303000303034A00480303FF0C773F8CBBFB0FC2
:40134000FF8FCF3FF33FF3C300000800000000003084FF00800300009000030303030300030300000003004200034A0048030302034800310014240003202303480090A0AF
:40138000B4549000000000000041410149814B494140486A48434341094942224B408040B44981000000000000C08000000000800000000000000000FF0C773F8CBBFB0F21
:4013C000FF8F00000030000700CF3FF33FF3C3FBCC337CC0F0CCCCFFC7FFC7BB03FCC0CC00003300000000300070E060606002A1C000200000480860C19100100070407812
:4014000000A0200000000000FFFEFFFDFFFBFFF7FFEFFFDFFFBFFF7F0000000008008800000000000100000008008800000000000200000008008800000000000300000045
:40144000080088000000000004000000080088000000000005000000080088000000000006000000080088000000000007000000080088000000000000000000280000005E
:40148000F9FF1F00000000DE0100000028000000F9FF1F00000020DE0200000028000000F9FF1F00000040DE0300000028000000F9FF1F00000060DE0400000028000000EE
:4014C000F9FF1F00000080DE0500000028000000F9FF1F000000A0DE06000000000000000000000000000000070000000000000000000000000000000800000000000000A0
:401500000000000000000000090000000000000000000000000000000A0000000000000000000000000000000B0000000000000000000000000000000C0000000000000081
:4015400000000000000000000D0000000000000000000000000000000E0000000000000000000000000000000F000000000000000000000000000000F8B500BFF8BC08BC5D
:401580009E4670474D0000000D010000F8B500BFF8BC08BC9E46704729000000B01500000881FF1F28000000B00000000000000000000000FFFEFFFDFFFBFFF7FFEFFFDF94
:4015C000FFBFFF7FFFFF00007F8000001F000000FF000000000000000000000000000000000000000000000000000000000000000000000000000000000000000000000094
:4016000000000000000000000000000000000000000000000000000000000000000000000000000000000000000000000000000000000000000000000000000000000000AA
:40164000000000000000000000000000000000000000000000000000000000000000000000000000000000000000000000000000000000000000000000000000000000006A
:40168000000000000000000000000000000000000000000000000000000000000000000000000000000000000000000000000000000000000000000000000000000000002A
:4016C00000000000000000000000000000000000000000000000000000000000000000000000000000000000000000000000000000000000000000000000000000000000EA
:020000040003F7
:0200000480007A
:400000000C52004001010140090301400B0401401D0501400907014003090140040B0140010D014013140140241501402F1601402517014004180140111901400A1B01408F
:400040000C400140154101400F4201400A4301400B4501401246014007470140144801401C490140144C0140114D014002500140025101400034016608A00934106811C907
:40008000186419A8604A614C78A9796C8001844085018610940198809A04A880AA04E402050107022D022F0137033F4059045B045F01DB04DF0123022A403A04681169028B
:4000C0006A106C026E226F107024718274408420858088118C069401950298809A04A440A610CA08CE02E210E402E640E880EA01940198809E40AD02AF02B611B710EA1018
:40010000EE409420B410EC10E080E482E880EA01E40252015B045F0182018E03910193029A029F01A201A502AF02B103B403BB02D804D904DB04DF0107820E0815021E081E
:400140001F2027802F22378269406B026C906D806E20752276228010812082028630888089408D02910295409F02A302A720AA40AF40C090C240C410CA50CC90E240E6A076
:400180000A020E03110112011B02250228032F0233033603580459045B045F018002820483018E018F019C049E02AC01B006B401B701BE01C012C650C760C828C9FFCAFF6C
:4001C000CBFFCD10CE70CF0FD008D804D904DA04DF01E010E1BCE210E358E490E558000101400420070208800D011201172018041A801F40200127202F223722394240054C
:4002000050105101520153026F0186408B01940198809E40C0C9C211C441CA50CCA0CE09D00CE204E625EA045B045F01DB04DF0169806A106B506C126E206F807009730912
:40024000752876018002812887808E109420E408EA04A940AB50B008B210B308B401B601B701E805EC01110417041B0839043F4143408301C430C610CEE0D010E280010221
:400280003F10512052015F24608063026620870597409F40AB0CC010CE20D4A0D6E0D8C0E240E610E880EC805220544084408D208E2097509C809E219F40A520AB20B1026F
:4002C000D460E240EA8097109A109E019F40AE10AF40B480B620EA40EE40512054015B8060046180658066088608D405D607D803520456808580880189809404961098204F
:400300009D809F80A401A5A0AA10B020D406E001E401E801961098209E84A520B404B780EC0A21045004562058205F808024822085048B8097109A109F40AA01C840D4E0A3
:40034000D620E010E220E6A0EA20528056105B205E0160106302650173107D4080108101828087118A018B208D409A10AB40AF10D4E0D6C0D8C0DC80DE20E230E6B0EA1097
:40038000EE805B125C01638064087502784084408E04961098209D019E84A520A901D401D603D803DC01DE04E40819011E1078207D80961098209D01A140AA80AB42B1628C
:4003C000B409B710C60CDE06E803EC0F10011A0110AA110201FEFE00FE000000004F4F004F0000000000C03F3F00FF000000000000F4F400F400000000FDFD00FD000000EC
:4004000000FEFE00FE0000000001000000040000000000000000000000000000000000000000000000000000000000000000000000000000000000000000000000000000BD
:40044000000000000000000000000000000000000000000000000000000000000000000000000000000000000000000000000000000000000000000000000000000000007C
:40048000000000000000000000000000000000000000000000000000000000000000000000000000000000000000000000000000000000000000000000000000000000003C
:4004C00000000000000000000000000000000000000000000000000000000000000000000000000000000000000000000000000000000000000000000000000000000000FC
:4005000000000000000000000000000000000000000000000000000000000000000000000000000000000000000000000000000000000000000000000000000000000000BB
:0200000490006A
:0400000000004005B7
:0200000490105A
:04000000BC90ACAF55
:0200000490303A
:02000000A981D4
:0200000490402A
:4000000000000000000000000000000000000000000000000000000000000000000000000000000000000000000000000000000000000000000000000000000000000000C0
:400040000000000000000000000000000000000000000000000000000000000000000000000000000000000000000000000000000000000000000000000000000000000080
:400080000000000000000000000000000000000000000000000000000000000000000000000000000000000000000000000000000000000000000000000000000000000040
:4000C0000000000000000000000000000000000000000000000000000000000000000000000000000000000000000000000000000000000000000000000000000000000000
:0200000490501A
:0C00000000012E16106900012E1EB9EA46
:00000001FF