:400000000080002011000000610300006103000008B5044B1A6803F53F5302331A6000F0A1F900BFFA46004010B5054C237833B9044B13B10448AFF300800123237010BD15
:400040004081FF1F0000000004210000084B10B51BB108480849AFF300800848036803B910BD074B002BFBD0BDE81040184700BF00000000042100004481FF1F0881FF1F87
:40008000000000000000000010B5754C2268636843EA0223734A1380A068E36843EA002001F04EFD68A3D3E9002301F0BFFD01F0CFFF6D4B18802069636943EA002001F0AE
:4000C0003FFD61A3D3E9002301F0B0FD01F0C0FF664B1880A069E36943EA002001F030FD59A3D3E9002301F0A1FD01F0B1FF604B1880604C2068636843EA002001F020FDE2
:4001000051A3D3E9002301F091FD01F0A1FF5A4B1880A068E36843EA002001F011FD4CA3D3E9002301F082FD01F092FF534B18802069636943EA002001F002FD42A3D3E9D7
:40014000002301F073FD01F083FF4D4B1880A069E36943EA002001F0F3FC3BA3D3E9002301F064FD01F074FF464B1880464B19685A6842EA012245490A809968DA6842EA90
:40018000012243490A8019695A6942EA012241490A809A69DB6943EA02233F4A13803F4C2268636843EA02233D4A1380A068E36843EA002001F0C4FC27A3D3E9002301F072
:4001C00035FD384BC3E900012069636943EA002001F0B6FC1CA3D3E9002301F027FD01F037FF314B1880A069E36943EA002001F0A7FC15A3D3E9002301F018FD01F028FF7F
:400200002A4B18802A4B19685A6842EA012229490A809968DA6842EA012227490A8019695A6942EA012225490A809A69DB6943EA0223234A1380234A1168536843EA01230B
:40024000214A1380002010BD9A9999999999B93FFCA9F1D24D62503F7B14AE47E17A843F5482FF1F5082FF1F8682FF1FE281FF1FEC81FF1FAC82FF1F8282FF1F8082FF1F18
:40028000E881FF1FE481FF1F0082FF1F2282FF1FF081FF1FEA81FF1FE681FF1FC081FF1FEE81FF1F2882FF1F7E82FF1F8882FF1F3082FF1F8482FF1FF281FF1F7C82FF1F9A
:4002C0002082FF1F8C82FF1FE081FF1FAFF3008070B562B601F0BAF801F028F900F028FD00F0F6FA00252C462E461B4B9C4208D13046002101220B4600F012FB01361435DA
:40030000002401340A2E00D10026FF2D00DD0025124B1B68002BE8D0104B5B68002BE4D00E4B9B68002BE0D00C4BDB68002BDCD00A4B1B69002BD8D0084B5B69002BD4D00D
:40034000FFF7A2FE054B00221A605A609A60DA601A615A61C9E700BF404B4C005C81FF1FFEE700BF08B5104E104D16E029686B68AC68002204E051F8040B43F8040B04322E
:40038000A242F8D1E868002203E0002143F8041B04328242F9D11035013E002EE6D101F077FEFFF795FFFEE701000000F024000008B5134A134B1A60134A136843F4007335
:4003C000136000230AE0032B03D8104A52F8231000E00F490F4A42F8231001332F2BF2D90D4B1A780D4B1A700A4A0D4B1A6000F0BBF800F039FD00220A4B1A6008BD00BF16
:400400000004FA050CED00E014ED00E000000000610300000080FF1FBC7600400481FF1F08ED00E00081FF1FFEE700BFF0B40022174611E050F82760F3B226F0FF0608E045
:4004400001EB420511F812406D78A5550132013BDBB2002BF4D101371A2FEBD9F0BC7047064B1B78DBB203F00701054A11701B09013213704422034B1A707047CF01004957
:400480006E5800407658004008B50A46002101F030FE08BD38B54FF49C72274B1A801823264A137040F21A6102321180023213700222234B1A7008224FF040231A700322DE
:4004C00003F500731A701F4B1B78DBB21E4A137010221E4B1A8041F25122023B1A80002419250CE01A4B1B7803F0010343EA440404F003044FF4F07000F0A6FC013D0DB102
:40050000032CEFD115B90320FFF78EFF114B4FF480721A8007221A7000220F490A704820023108701A700222033B1A700B4A137843F00303137038BD80400040824000406A
:400540000043004008010049A146004022420040254200400440004006400040A243004008B501F0BBFD08BD38B572B6414A137843F00403137000240CE03F4963001A19C4
:4005800052000A4423445B00C8589188FFF77CFF0134E4B2052CF0D94FF090403749FFF745FF2022364B1A7036480421FFF76CFF35480421FFF768FF344835490422FFF73B
:4005C000CFFF34480421FFF75FFF33480421FFF75BFF324832490422FFF7C2FF314A137843F0020313701032137843F0020313702D4C237843F040032370A2F58632513A36
:40060000137843F010031370284829490822FFF7A7FF284828490822FFF7A2FF274828490A22FFF79DFF274827490822FFF798FF264827490822FFF793FF26482649082251
:40064000FFF78EFF254A137843F008031370244D61232B70FFF71EFFC1232B700122214B1A70FFF7FDFE204821460E22FFF778FF38BD00BFE8460040082100006C000048A5
:40068000126000400076004008760040107600409C040048187600402076004028760040A004004803500140A04300400251004068040048C251004070040048F05100406A
:4006C000780400481251004084040048225100408C0400483251004094040048224300400048004004000840B043004010B50120014641F6FF724FF4804300F029FB474B68
:400700001870FF2808D13BE000F040FC434B234418710134E4B200E00024012CF4D9002415E014F0010F08D13C4B1A191079012152790B4600F044FC07E0384B1A191079C6
:40074000012152790B4600F03BFC0134E4B2002CE7D0324B587901211A790B4600F030FC00240BE02D4B23442D492144187989B246F27B4200F038FC0134E4B2012CF1D986
:400780000120014641F6FF724FF4804300F0FEFA224B9871FF2808D121E000F0F7FB1F4B234418720134E4B200E00024002CF4D01A4B1A7A10460121052300F001FC00241E
:4007C0000BE0164B234417492144187A89B246F27A4200F009FC0134E4B2002CF1D00120014641F6FF724FF4804301F049F80B4B5872FF2810D000F0C9FB0246074CA07243
:4008000001210B4600F0DCFB04F10C01A07A89B246F2255200F0E8FB10BD00BF7881FF1F0C81FF1FCC82FF1F10B50D4C2078217900F07CFBA079217A00F078FB607AA17A28
:4008400000F074FB2078012100F028FBA079012100F024FB607A012100F020FB10BD00BF7881FF1F08B5FFF7DFFF0023044A13701032137001234F321370024A537308BD0F
:40088000156500407881FF1F002304E00021034AD1540133DBB2002BF8D07047CC82FF1F08B5FFF7F1FF094B9B7B23B9FFF71EFF0122064B9A73002305E0044A1A44FF21A5
:4008C00011730133DBB2002BF7D008BD7881FF1F08B5054BDB7B23B9FFF7E2FF0122024BDA73FFF7BFFF08BD7881FF1F00F00F00014B185C704700BF2C21000000F00F03FE
:4009000000090238C0B2052805D8044A02EB00100344187C70470020704700BF2C2100002DE9F04782B014461F460023009301930D4649B1012903D84D1EEDB2012604E049
:400940008D1EEDB2022600E00026002803DB02464FF0000802E042424FF00108234614E04B48A0FB0210C008814600EB80004000101A03F1FF3AC0B2FFF7B8FF02AB53442B
:4009800003F8080C4A465FFA8AF3002BE8D1022F32D1B8F1000F33D02D20FFF7AFFF8DF800002DE0994602A9194411F8081C3F2915D0B8F1000F23D03BB92D20FFF79EFF8C
:4009C00002AB994409F8080C1AE003F1FF382D20FFF794FF02AB434403F8080C10E0611E8A4206D002A98944002109F8081C0132D2B20133DBB201E000221346A342D1D3EE
:400A0000012F40D113E002AA1A4412F8082C5AB145B916B1022E03D804E01E494A5501E01C494A550135EDB20133DBB200E00023A342E8D30CE016B1022E04D806E0002290
:400A4000144B5A5502E00022124B5A550135EDB2A542F0D319E06319012B12D116B1022E08D80EE0013B02AA224412F8091C094AD15406E0013B02AA224412F8091C054AE9
:400A8000D154013CE4B2002CE5D102B0BDE8F087CDCCCCCCCC82FF1F70B50120014641F6FF724FF4804300F091F96A4B1870FF2808D13BE000F06AFA664B234418710134BA
:400AC000E4B200E00024092CF4D9002415E014F0010F08D15F4B1A191079012152790B4600F06EFA07E05B4B1A191079012152790B4600F065FA0134E4B2082CE7D9554B23
:400B0000587B01211A790B4600F05AFA00240BE0504B234450492144187989B246F2764200F062FA0134E4B2092CF1D90120014641F6FF724FF4804300F066F9454B9873B7
:400B4000FF280FD164E000F021FA424D2544287400F01CFA287600F019FA85F820000134E4B200E00024042CEDD9002418E0394E3519287C01212A7E212300F021FA287E2E
:400B8000012195F82020212300F01AFA0134264495F820000121327C052300F011FAE4B2032CE4D92B4C207D0121227F212300F007FA207F012194F82420212300F000FA72
:400BC00094F824000121227C052300F0F9F900241CE0204D254421492144287C89B246F2795200F001FA1E492144287E89B246F2755200F0F9F91B49214495F8200089B2AA
:400C000046F2785200F0F0F90134E4B2042CE0D90120014641F6FF724FF4804300F020FA0C4B83F82500FF2812D000F0AFF90246084C84F826000521012300F0C1F904F146
:400C4000280194F8260089B246F2274200F0CCF970BD00BF8881FF1F1C81FF1FD082FF1FE082FF1FD882FF1F10B50E4C2078217900F05CF9A07B217C00F058F994F8250092
:400C800094F8261000F052F92078012100F006F9A07B012100F002F994F82500012100F0FDF810BD8881FF1F08B5FFF7DDFF0023054A137010321370012350321370034AFB
:400CC00082F82D3008BD00BF176400408881FF1F002308E000220549CA540549CA540549CA540133DBB2042BF4D97047D082FF1FE082FF1FD882FF1F08B5FFF7E9FF0B4B79
:400D000093F82E302BB9FFF7C7FE0122074B83F82E20002306E0054A1A44FF2182F828100133DBB2042BF6D908BD00BF8881FF1F08B5064B93F82F302BB9FFF7DDFF01222A
:400D4000024B83F82F20FFF7AFFF08BD8881FF1FF0B583B086460F4616461D460A4C0120207000230093019371463A4600F0EAF8207831462A4600F0BFF82078022100F0E9
:400D8000A9F8207803B0F0BD2C81FF1FF0B583B084468E4617461E460B4C022525700023009301932846614672462B4600F0CAF820783946324600F09FF82078294600F03E
:400DC00089F8207803B0F0BD2D81FF1FF0B583B086460F4616461D460A4C0420207000230093019371463A4600F0ACF8207831462A4600F081F82078022100F06BF8207849
:400E000003B0F0BD2E81FF1FF0B583B086460F4616461D460B4C05232370002200920192184671463A4600F08DF8207831462A4600F062F82078022100F04CF8207803B067
:400E4000F0BD00BF2F81FF1F0230800803D000BF01380046FCD17047EFF3108072B6704780F31088704700BF0B4A7F2313708021517007E0DA0002F1804202F5F042013B60
:400E8000DBB21370002BF5D1DB0003F1804303F5F04300221A7070473081FF1F172815D831B103010A495A5C42F020025A5405E0030107495A5C02F0DF025A540001044A66
:400EC000835C43F00103835400207047012070471070004017280BD80001064A835C03F0F10301F0070143EA4101815400207047012070471070004041F6FF73994201D15B
:400F00004FF4005141F6FF739A4201D14FF40052172808D8C00000F1804000F5EC408180C280002070470120704700BF172805D8034B03EB00104172002070470120704705
:400F40001070004017281BD810B4C00000F1804404F5EC44D201D2B201F07F01114321709DF804201201D2B203F00F03134363709DF8083003F00F03A3700020E07001E0BC
:400F8000012070475DF8044B704700BF10B5FFF763FF0A4B5B78182B0BD9084A1478013B5370E30003F1804303F5F0431B78137000E0FF24FFF754FF204610BD3081FF1FCD
:400FC00010F0800F0CD111F4704F0BD1C00000F1804000F5F04001808270C37000207047012070470120704710F0800F08D1C00000F1804000F5F0408180C280002070470A
:401000000120704701BE704770B504460E46074B1D681F2802D90020FFF7F4FF04F01F04103455F8240045F8246070BD08ED00E038B504460D46072902D90020FFF7E2FF82
:401040001F2C02D90020FFF7DDFF04F01F0000F1604000F564406D01EDB2057038BD00BFF0B583B086460F4616461D460A4C0320207000230093019371463A46FFF762FF4C
:40108000207831462A46FFF737FF20780221FFF721FF207803B0F0BD3881FF1F08B5134A136823F0010313604FF4F05300E0013B23B10E4A126812F0010FF8D19BB14FF414
:4010C00080320B4B1A60FFF7C7FE0A4A137803F0FE0313701032137803F0FE031370FFF7BFFE002008BD012008BD00BF10A0004080E100E0A6430040064B1A7842F001026A
:401100001A701B7813F0010F01D1012070470020704700BF04A0004008B5FFF79DFE154A137843F0010313701032137843F001031370FFF795FE41F201220F4B1A60FFF739
:40114000DBFF4FF480320D4B1A600D4A136843F0010313604FF4107300E0013B23B1084A126812F0010FF8D00BB9012008BD002008BD00BFA643004000A0004000E100E0DE
:4011800010A00040064B1A7802F0FE021A701B7813F0010F01D0012070470020704700BF04A0004010F4004F07D1064B18801B889BB2834203D001207047022070470020AA
:4011C000704700BF16A0004050B90D4B5A7802F0EF025A705B7813F0100F0CD001207047074B5A7842F010025A705B7813F0100F03D101207047002070470020704700BFBA
:4012000014A0004030B4841EE4B20D2C28D88C1EE4B2052C02D92BBB012925D1032A25D8824225D88A4225D8164C657805F0F005284360706478E4B284421DD10BB90020F1
:4012400000E002204B01DBB29200D2B2134303430C4A13701278D2B29A420FD001200EE002200CE002200AE0022008E0022006E0022004E0022002E0012000E0002030BCED
:40128000704700BF14A0004050B90D4B1A7802F0EF021A701B7813F0100F0CD001207047074B1A7842F010021A701B7813F0100F03D101207047002070470020704700BF7B
:4012C00014A0004050B90D4B1A7802F0FE021A701B7813F0010F0CD001207047074B1A7842F001021A701B7813F0010F03D101207047002070470020704700BF14A00040DB
:40130000044B18801B889BB2834201D0012070470020704704A0004003785B01214A416841F08011995003785B0199189A5802F07F12436823F080139A4228D183680B619D
:401340000278184B03EB421319698268914220D1C2685A610278134B03EB42135969C268914218D14FF0FF329A6102780D4B03EB42139A69B2F1FF3F0FD10022DA6102785A
:40138000084B03EB4213DB694BB101207047012070470120704701207047012070470020704700BFA0A0004001780901114A436843F4000343F008038B5003781B019918E5
:4013C0009B580D4A1A40436823F4000323F008039A420BD183684B600278064B03EB02135A6883689A4203D001207047012070470020704720A00040F7007F0038B50024E0
:4014000009E004EB44039B000E481844FFF7CCFF28B90134E4B2072CF3D9002500E001254DB10DE0084800EB0410FFF775FF30B90134E4B200E000240F2CF3D900E0012540
:40144000284638BD6C230000CC23000008B5FFF703FD324A137843F0010313701032137843F001031370FFF7FBFC2D4A137803F0FE0313704FF4F05300E0013B23B1284A42
:40148000127812F0010FF8D1002B3CD04FF48032244B1A6010202449FFF7B6FD10200721FFF7C6FD0320FFF77DFE88B9FFF78CFE80B9062003210A460023FFF7A3FE58B968
:4014C000FFF7E2FE50B9FFF7FDFE48B1012308E0012306E0012304E0012302E0012300E0002393B9FFF78AFF88B941F20120FFF707FF70B90A4B00221A701B7813F0010FAC
:4015000009D0012008BD012008BD012008BD012008BD012008BD002008BD00BFA643004010A0004080E100E0E515000008B5074B1B7813B9FFF78AFF00E0002020B9012273
:40154000024B1A70FFF7E8FD08BD00BFB881FF1F08B50222034B5A70FFF714FEFFF79EFD08BD00BF00A0004038B510221A4B5A70012500242CE0194B1B881D4224D0630186
:40158000174A9B5C13F0200F1ED015F03F0F18D0052C19D8DFE804F00306090C0F1200F041F811E000F070F80EE000F09FF80BE000F0CEF808E000F0FFF805E000F02EF909
:4015C00002E0204600F020F86D00ADB20134E4B20F2CD0D938BD00BF00A0004008A00040A0A0004008B5074B5B7813F0020F01D0FFF7AEFF034B5B7813F0100F01D0FFF7B0
:40160000B3FF08BD00A000404001054BC25C12F0010F03D0C25C42F00102C254704700BFA0A000400122124B1A60124B987800F00F00114B18600022104B1A600EE0032B13
:4016400002D9C3F10B0101E0C3F103010C4A515C0C4A42F823100133084A1360074B1B689842ECD8034A137843F00103137070475C81FF1FA0A000407481FF1FBC81FF1FD2
:40168000A8A000405482FF1F0122124B1A60124B987800F00F00114B18600022104B1A600EE0032B02D9C3F10B0101E0C3F103010C4A515C0C4A42F823100133084A13606E
:4016C000074B1B689842ECD8034A137843F00103137070476081FF1FC0A000407481FF1FBC81FF1FC8A00040AC82FF1F0122124B1A60124B987800F00F00114B18600022D1
:40170000104B1A600EE0032B02D9C3F10B0101E0C3F103010C4A515C0C4A42F823100133084A1360074B1B689842ECD8034A137843F00103137070476481FF1FE0A0004046
:401740007481FF1FBC81FF1FE8A000400082FF1F0122144B1A60144B987800F00F00134B18600022124B1A6011E0032B02D9C3F10B0201E0C3F1030202F1804202F52142F6
:40178000117A0C4A42F823100133094A1360084B1B689842E9D8044A137843F001031370704700BF6881FF1F00A100407481FF1FBC81FF1FC081FF1F0122124B1A60124B5B
:4017C000987800F00F00114B18600022104B1A600EE0032B02D9C3F10B0101E0C3F103010C4A515C0C4A42F823100133084A1360074B1B689842ECD8034A137843F001037E
:40180000137070476C81FF1F20A100407481FF1FBC81FF1F28A100403082FF1F0122124B1A60124B987800F00F00114B18600022104B1A600EE0032B02D9C3F10B0101E052
:40184000C3F103010C4A515C0C4A42F823100133084A1360074B1B689842ECD8034A137843F00103137070477081FF1F40A100407481FF1FBC81FF1F48A100408C82FF1F42
:40188000F0B583B086460F4616461D460A4C0023237000930193184671463A46FFF752FB207831462A46FFF727FB20780221FFF711FB207803B0F0BD3981FF1F81F000418F
:4018C00002E000BF83F0004330B54FEA41044FEA430594EA050F08BF90EA020F1FBF54EA000C55EA020C7FEA645C7FEA655C00F0E2804FEA5454D4EB5555B8BF6D420CDD56
:401900002C4480EA020281EA030382EA000083EA010180EA020281EA0303362D88BF30BD11F0004F4FEA01314FF4801C4CEA113102D0404261EB410113F0004F4FEA033352
:401940004CEA133302D0524263EB430394EA050F00F0A780A4F10104D5F1200E0DDB02FA0EFC22FA05F2801841F1000103FA0EF2801843FA05F359410EE0A5F120050EF1E2
:40198000200E012A03FA0EFC28BF4CF0020C43FA05F3C01851EBE37101F0004507D54FF0000EDCF1000C7EEB00006EEB0101B1F5801F1BD3B1F5001F0CD349085FEA30005C
:4019C0004FEA3C0C04F101044FEA445212F5800F80F09A80BCF1004F08BF5FEA500C50F1000041EB045141EA050130BD5FEA4C0C404141EB010111F4801FA4F10104E9D1ED
:401A000091F0000F04BF01460020B1FA81F308BF2033A3F10B03B3F120020CDA0C3208DD02F1140CC2F10C0201FA0CF021FA02F10CE002F11402D8BFC2F1200C01FA02F110
:401A400020FA0CFCDCBF41EA0C019040E41AA2BF01EB0451294330BD6FEA04041F3C1CDA0C340EDC04F11404C4F1200220FA04F001FA02F340EA030021FA04F345EA030178
:401A800030BDC4F10C04C4F1200220FA02F001FA04F340EA0300294630BD21FA04F0294630BD94F0000F83F4801306BF81F480110134013D4EE77FEA645C18BF7FEA655C71
:401AC00029D094EA050F08BF90EA020F05D054EA000C04BF1946104630BD91EA030F1EBF0021002030BD5FEA545C05D14000494128BF41F0004130BD14F580043CBF01F590
:401B0000801130BD01F0004545F0FE4141F470014FF0000030BD7FEA645C1ABF194610467FEA655C1CBF0B46024650EA013406BF52EA033591EA030F41F4002130BD00BF1F
:401B400090F0000F04BF0021704730B54FF4806404F132044FF000054FF0000150E700BF90F0000F04BF0021704730B54FF4806404F1320410F0004548BF40424FF000011B
:401B80003EE700BF42004FEAE2014FEA31014FEA02701FBF12F07F4393F07F4F81F06051704792F0000F14BF93F07F4F704730B54FF4607401F0004521F0004120E700BF4B
:401BC00050EA010208BF704730B54FF000050AE050EA010208BF704730B511F0004502D5404261EB41014FF4806404F132045FEA915C3FF4DCAE4FF003025FEADC0C18BFB9
:401C000003325FEADC0C18BF033202EBDC02C2F1200300FA03FC20FA02F001FA03FE40EA0E0021FA02F11444C1E600BF70B54FF0FF0C4CF4E06C1CEA11541DBF1CEA1355DC
:401C400094EA0C0F95EA0C0F00F0DEF82C4481EA030621EA4C5123EA4C5350EA013518BF52EA033541F4801143F4801338D0A0FB02CE4FF00005E1FB02E506F00042E0FB5B
:401C800003E54FF00006E1FB03569CF0000F18BF4EF0010EA4F1FF04B6F5007F64F5407404D25FEA4E0E6D4146EB060642EAC62141EA55514FEAC52040EA5E504FEACE2EBF
:401CC000B4F1FD0C88BFBCF5E06F1ED8BEF1004F08BF5FEA500E50F1000041EB045170BD06F0004646EA010140EA020081EA0301B4EB5C04C2BFD4EB0C0541EA045170BD98
:401D000041F480114FF0000E013C00F3AB8014F1360FDEBF002001F0004170BDC4F10004203C35DA0C341BDC04F11404C4F1200500FA05F320FA04F001FA05F240EA02006F
:401D400001F0004221F0004110EBD37021FA04F642EB06015EEA430E08BF20EAD37070BDC4F10C04C4F1200500FA04F320FA05F001FA04F240EA020001F0004110EBD37051
:401D800041F100015EEA430E08BF20EAD37070BDC4F1200500FA05F24EEA020E20FA04F301FA05F243EA020321FA04F001F0004121FA04F220EA020000EBD3705EEA430EA9
:401DC00008BF20EAD37070BD94F0000F0FD101F00046400041EB010111F4801F08BF013CF7D041EA060195F0000F18BF704703F00046520043EB030313F4801F08BF013D5D
:401E0000F7D043EA0603704794EA0C0F0CEA135518BF95EA0C0F0CD050EA410618BF52EA4306D1D181EA030101F000414FF0000070BD50EA410606BF1046194652EA43069E
:401E400019D094EA0C0F02D150EA013613D195EA0C0F05D152EA03361CBF104619460AD181EA030101F0004141F0FE4141F470014FF0000070BD41F0FE4141F4780170BDFA
:401E800070B54FF0FF0C4CF4E06C1CEA11541DBF1CEA135594EA0C0F95EA0C0F00F0A7F8A4EB050481EA030E52EA03354FEA013100F088804FEA03334FF0805545EA1313ED
:401EC00043EA12634FEA022245EA111545EA10654FEA00260EF000419D4208BF964244F1FD0404F5407402D25B084FEA3202B61A65EB03055B084FEA32024FF480104FF439
:401F0000002CB6EB020E75EB030E22BFB61A754640EA0C005B084FEA3202B6EB020E75EB030E22BFB61A754640EA5C005B084FEA3202B6EB020E75EB030E22BFB61A75466F
:401F400040EA9C005B084FEA3202B6EB020E75EB030E22BFB61A754640EADC0055EA060E18D04FEA051545EA16754FEA06164FEAC30343EA52734FEAC2025FEA1C1CC0D19A
:401F800011F4801F0BD141EA00014FF000004FF0004CB6E711F4801F04BF01430020B4F1FD0C88BFBCF5E06F3FF6AFAEB5EB030C04BFB6EB020C5FEA500C50F1000041EB89
:401FC000045170BD0EF0004E4EEA113114EB5C04C2BFD4EB0C0541EA045170BD41F480114FF0000E013C90E645EA060E8DE60CEA135594EA0C0F08BF95EA0C0F3FF43BAF4B
:4020000094EA0C0F0AD150EA01347FF434AF95EA0C0F7FF425AF104619462CE795EA0C0F06D152EA03353FF4FDAE1046194622E750EA410618BF52EA43067FF4C5AE50EA40
:4020400041047FF40DAF52EA43057FF4EBAE12E74A0011D212F5001211D20DD56FF47873B3EB62520ED44FEAC12343F0004343EA505323FA02F070474FF00000704750EA7D
:40208000013002D14FF0FF3070474FF0000070470E4B70B51E460E4C0025E41AA410A54204D056F8253098470135F8E700F00EFA084B094C1E46E41AA4100025A54204D006
:4020C00056F8253098470135F8E770BDD8240000D8240000D8240000E024000010B5431E0A44914204D011F8014B03F8014FF8E710BD03460244934202D003F8011BFAE78F
:40210000704700000000000040510040300000000140001000140140000800400140000A004C014000020050014020003F065B4F666D7D077F6F777C395E797100000000C6
:402140000000000000000000004080003F065B4F666D7D077F6F00000048000000777C585E79713D74101E763855545C7367506D781C1C1D766E5B000000000800777C5808
:402180005E79713D74101E763855545C7367506D781C1C1D766E5B0000000000240000000000000000000012001200003F06DBCFE6EDFD07FFEFF78F390FF9F100000200EC
:4021C000000000000C213F00200000002400000000000000000000000000001000001200120000000012000C0005090000080800120024282D1524000000000000000000FB
:40220000000000000010000C1210000000080000120020102D1524000000000000302000000000200000C00000C000003F06DBCFE6EDFD07FFEF000000C8008300F78F3902
:402240000FF9F1BDF6091E703836363FF33FF3ED013E3036000009000000000800F7FCD8DEF9F1EFF4001E7000D4D4DCF33FD0EDC01C101C00000900000000009000030352
:40228000030303000303034A00480303FF0C773F8CBBFB0FFF8FCF3FF33FF3C300000800000000003084FF00800300009000030303030300030300000003004200034A0069
:4022C00048030302034800310014240003202303480090A0B4549000000000000041410149814B494140486A48434341094942224B408040B44981000000000000C080009F
:40230000000000800000000000000000FF0C773F8CBBFB0FFF8F00000030000700CF3FF33FF3C3FBCC337CC0F0CCCCFFC7FFC7BB03FCC0CC00003300000000300070E060AD
:40234000606002A1C000200000480860C19100100070407800A0200000000000FFFEFFFDFFFBFFF7FFEFFFDFFFBFFF7F00000000080088000000000001000000080088000E
:402380000000000002000000080088000000000003000000080088000000000004000000080088000000000005000000080088000000000006000000080088000000000039
:4023C0000700000008008800000000000000000028000000F9FF1F00000000DE0100000028000000F9FF1F00000020DE0200000028000000F9FF1F00000040DE0300000089
:4024000028000000F9FF1F00000060DE0400000028000000F9FF1F00000080DE0500000028000000F9FF1F000000A0DE0600000000000000000000000000000007000000AF
:4024400000000000000000000000000008000000000000000000000000000000090000000000000000000000000000000A0000000000000000000000000000000B00000036
:402480000000000000000000000000000C0000000000000000000000000000000D0000000000000000000000000000000E0000000000000000000000000000000F000000E6
:4024C000000000000000000000000000F8B500BFF8BC08BC9E4670474D000000B1030000F8B500BFF8BC08BC9E46704729000000002500000881FF1F38000000A801000007
:4025000000000000FFFEFFFDFFFBFFF7FFEFFFDFFFBFFF7FFFFEFFFDFFFBFFF7FFEFFFDFFFBFFF7FFFFFFFFF7F8000003F000000FFFF000000000000000000000000000081
:40254000000000000000000000000000000000000000000000000000000000000000000000000000000000000000000000000000000000000000000000000000000000005B
:40258000000000000000000000000000000000000000000000000000000000000000000000000000000000000000000000000000000000000000000000000000000000001B
:4025C00000000000000000000000000000000000000000000000000000000000000000000000000000000000000000000000000000000000000000000000000000000000DB
:40260000000000000000000000000000000000000000000000000000000000000000000000000000000000000000000000000000000000000000000000000000000000009A
:020000040003F7
:0200000480007A
:400000000C520040070301400A0501403B0601403307014004090140040A01400E0B01404014014038150140081701400418014012190140071B01400A40014018410140BF
:4000400013420140104301400A4501401046014007470140104801401E490140154C0140114D01400450014002510140003801AA08A009941055119C183419516005614CF3
:4000800078C3795A89808E808F049604AE04E260E6108204880896049F04A108A580A680A908E620EE040C010D031202130F1A021B082302270528022F043003330C370328
:4000C000580459045B045F01800182028A048F039402960199029B01A004A208A608A808B003B20CB502B60CB701BA88BE01C012C506C605C805C9FFCAFFCBFFCD10CE7005
:40010000CF0FD008D201D804D904DA04DB04DF01E010E1BCE210E358E490E5580011070209080C200E40102013221720181019801B021E4020052180268027202C202D804C
:400140002F403020372239403E4040054820534069406B026C986D80760180108C8096049E019F04A010A108A408A580A684AA01AC10C08AC254C44ECAD0CCA4CE18D00C41
:40018000E644AD09B010E604E80A5B045F01DB04DF01681069916C027080710872088402860889108C808D40E008E402EE040A020D010F021A011B011F02220125022E033E
:4001C0003203350336033B205201580459045B045C115D105F0189028B018C038F08911092039328950197029E01A104A330A602AD08B10CB303B403B520B710BF04C0350A
:40020000C560C650C80AC9FFCAFFCBFFCD10CE70CF0FD008D804D904DA04DB04DC11DD01DF01E010E1BCE210E358E490E5580010044009200C8210821610181019881E044B
:40024000212024422604270429082D802F40308031203502370439403B803C6047044C814D025610680269406C246D016E8075117622800482028660882089018D119604B0
:400280009F04A010A604C082C292C429CA92CCCCCE38D040D210E240E6E0EA0DEE0696049F04A010A604AB02AD40E402E6245B045F01DB04DF0168026B586D806E016F2840
:4002C0007128734275187640770180028108860189408F50E00CE402E620A938AB08AE40AF60B301B70AEC0913101D0238023D203F044208C440C620CEE0D01000083A02C6
:400300003F8053815B085F206120640165018A088D108E02931094029E08A102A510AF04C010CE60D4A0D6E0D8C0EA4050205508800188019310940297029C019D019F28BE
:40034000A004A520A740A902AB80D460E620E880EE20810183018F0897029D019F28A004A420A508A740A920AF10E220E620E810EA205040530254815B085C0261026780B9
:40038000D407D607D8035608848288018C408F08948097829C029F08A481A502A702AB01D402E001E40A830497029E08AD02AF40B302EC01538257205F40838084048820FE
:4003C000A004A420A508AB40AF20D4E0D620E440E620EA605220562059045A405E046201640873107D4080088104862087108A248D408E019240A908AA40AB20AF42D4E08F
:40040000D6C0D8C0DC80DE20E210E6E0EAB0EE605B105F0861606504700477808310841087108C048F0897029E08A704D401D603D803DC01DE04E008E4021B041F01731086
:400440007810931097029810A704AA08AD40B380B524C60CDC01DE02E808EC0600010A0110021A0210AA110A01FEFE00FE000000004F4F004F0000000000C01F1F00DF0075
:400480000000000000F4F400F400000000FFFF00FF00000000FDFD00FD00000000020000000500000000000000000000000000000000000000000000000000000000000065
:4004C00000000000000000000000000000000000000000000000000000000000000000000000000000000000000000000000000000000000000000000000000000000000FC
:4005000000000000000000000000000000000000000000000000000000000000000000000000000000000000000000000000000000000000000000000000000000000000BB
:40054000000000000000000000000000000000000000000000000000000000000000000000000000000000000000000000000000000000000000000000000000000000007B
:40058000000000000000000000000000000000000000000000000000000000000000000000000000000000000000000000000000000000000000000000000000000000003B
:0200000490006A
:0400000000004005B7
:0200000490105A
:04000000BC90ACAF55
:0200000490303A
:0200000017895E
:0200000490402A
:4000000000000000000000000000000000000000000000000000000000000000000000000000000000000000000000000000000000000000000000000000000000000000C0
:400040000000000000000000000000000000000000000000000000000000000000000000000000000000000000000000000000000000000000000000000000000000000080
:400080000000000000000000000000000000000000000000000000000000000000000000000000000000000000000000000000000000000000000000000000000000000040
:4000C0000000000000000000000000000000000000000000000000000000000000000000000000000000000000000000000000000000000000000000000000000000000000
:0200000490501A
:0C00000000012E16106900012E2527F2C9
:00000001FF