:400000000080002011000000B1090000B109000008B5044B1A6803F53F5302331A6000F0C9FC00BFFA46004010B5054C237833B9044B13B10448AFF300800123237010BD3E
:400040004881FF1F0000000050300000084B10B51BB108480849AFF300800848036803B910BD074B002BFBD0BDE81040184700BF00000000503000004C81FF1F0881FF1FC1
:4000800000000000000000002DE9F04100204E494E4BC3E900010F224D4B1A804FF4C8524C4B1A8062B601F0EDFD01F05BFE01F03BF900F037FF0023474A1370474A137038
:4000C000FF20782100F0B8F9082404E0E0B2042101F086F80134112CF8DD012700252C462E46A846B4F5FA7F2AD13D4A1388013313800136354CD4E9000131A3D3E90023DA
:4001000002F004F8C4E9000127B1324A13880A33138004E01FB92F4A13880A3B13802D4B1B8842F21072934205D841F66312934204D9002404E000273C4601E001270024FD
:4001400001340A2E00D10026264B1B68DBB1254B5B68C3B1234B9B68ABB1224BDB6893B1204B1B697BB11F4B5B6963B100F03CF800F004FA80461B4B00221A605A609A6048
:40018000DA601A615A61144B1B7813B1012B08D00EE0404600F062F900F060FA00F0AAFB06E0404600F098F900F058FA00F0A2FB284600F0BFF9054694E700BFAFF30080FE
:4001C0007B14AE47E17A843F00002A404082FF1F9E82FF1F6882FF1F3882FF1FE482FF1F9A82FF1F6481FF1F10B5774C2268636843EA0223754A1380A068E36843EA002013
:4002000002F0C0F86AA3D3E9002302F031F902F0F1FB6F4B18802069636943EA002002F0B1F863A3D3E9002302F022F902F0E2FB684B1880A069E36943EA002002F0A2F865
:400240005BA3D3E9002302F013F902F0D3FB624B1880624C2068636843EA002002F092F853A3D3E9002302F003F902F0C3FB5C4B1880A068E36843EA002002F083F84EA324
:40028000D3E9002302F0F4F802F0B4FB554B18802069636943EA002002F074F844A3D3E9002302F0E5F802F0A5FB4F4B1880A069E36943EA002002F065F83DA3D3E900239F
:4002C00002F0D6F802F096FB484B1880484B19685A6842EA012247490A809968DA6842EA012245490A8019695A6942EA012243490A809A69DB6943EA0223414A1380414CB9
:400300002268636843EA02233F4A1380A068E36843EA002002F036F829A3D3E9002302F0A7F83A4BC3E900012069636943EA002002F028F81EA3D3E9002302F099F802F003
:4003400059FB334B1880A069E36943EA002002F019F817A3D3E9002302F08AF802F04AFB2C4B18802C4B19685A6842EA01222B490A809968DA6842EA012229490A80196904
:400380005A6942EA012227490A809A69DB6943EA0223254A1380254A1168536843EA0123234A13800122234B1A60002010BD00BF9A9999999999B93FFCA9F1D24D62503FB6
:4003C0007B14AE47E17A843F6C82FF1F6882FF1F9E82FF1FFA81FF1F0482FF1FC482FF1F9A82FF1F9882FF1F0082FF1FFC81FF1F1882FF1F3C82FF1F0882FF1F0282FF1FDD
:40040000FE81FF1FD881FF1F0682FF1F4082FF1F9682FF1FA082FF1F4882FF1F9C82FF1F0A82FF1F9482FF1F3A82FF1FA482FF1FF881FF1F8481FF1F70B505460E460024EA
:4004400004E0E8B2E1B201F07DF801340C2CF8DDF0B2002100F08AFD002070BD10B50446184B188840F2DB53984207D8164B1888002104220B4600F081FF04E000210422DD
:400480000B4600F07BFF114BD3E900010022104B01F0EEFF02F086FA05210422002300F06DFF0F20012100F09BFE0A4B18880A210422002300F062FFE0B2002100F048FD54
:4004C000002010BD6882FF1F9E82FF1F4082FF1F000059409A82FF1F10B50446124B1888002104220B4600F049FF104BD3E9000100220F4B01F0BCFF02F054FA052104226E
:40050000002300F03BFF0F20012100F069FE42F2B8200A210422002300F030FFE0B2002100F016FD002010BD6882FF1F4082FF1F0000594010B5044601F0DCFD9CB90128AC
:4005400011D10C4B1B781BB901220B4B1A7004E0012B02D10022084B1A70074B1A78054B1A70012403E0012C01D100B90024204610BD00BFE482FF1F3882FF1F10B5294BCD
:400580001888294B1B881844401002F00DFB274902F012FC0446264B188802F005FB214602F00AFC0446234902F00EFD20B12046214902F0EBFC40BB2046204902F004FDD8
:4005C00020B120461E4902F0E1FC00BB20461D4902F0FAFC20B120461B4902F0D7FCC0B920461A4902F0F0FC20B12046184902F0CDFC80B92046174902F0E6FC68B12046FA
:40060000154902F0C3FC50B910BD012010BD022010BD032010BD042010BD002010BD052010BD00BF9682FF1F9C82FF1F10575B3D6882FF1F629083416290A741107A324173
:40064000107A7A41637F1241637F3241CAE5E340E5F21141B3EAAF40B3EAEF4010B5A14B1A88A2F5DA53183B9BB2B3F5FA7F2BD20820042100F0B4FD0920042100F0B0FDAA
:400680000A20042100F0D2FD0B20042100F0CEFD0C20042100F0CAFD0D20042100F0C6FD0E20042100F0C2FD0F20042100F0BEFD1020042100F0BAFD1120042100F0B6FD1E
:4006C0000022894B1A6000E1A2F5EA530C3B9BB2B3F5FA7F2BD20820042100F081FD0920042100F07DFD0A20042100F079FD0B20042100F075FD0C20042100F097FD0D2047
:40070000042100F093FD0E20042100F08FFD0F20042100F08BFD1020042100F087FD1120042100F083FD00226F4B1A60CDE0A2F5FA539BB2B3F5FA7F2BD20820042100F05B
:400740004FFD0920042100F04BFD0A20042100F047FD0B20042100F043FD0C20042100F03FFD0D20042100F03BFD0E20042100F05DFD0F20042100F059FD1020042100F031
:4007800055FD1120042100F051FD0022564B1A609BE0A2F50453343B9BB2B3F5FA7F2BD20820042100F01CFD0920042100F018FD0A20042100F014FD0B20042100F010FD8D
:4007C0000C20042100F00CFD0D20042100F008FD0E20042100F004FD0F20042100F000FD1020042100F022FD1120042100F01EFD00223D4B1A6068E0A2F50C53283B9BB20C
:40080000B3F5FA7F2BD20820042100F0E9FC0920042100F0E5FC0A20042100F0E1FC0B20042100F0DDFC0C20042100F0D9FC0D20042100F0D5FC0E20042100F0D1FC0F20BC
:40084000042100F0CDFC1020042100F0C9FC1120042100F0C5FC0022234B1A6035E042F21B539A4220D9214B1968214B1B6899421ADD1D4B1B6853B91020042100F0FEFC0F
:400880001120042100F0FAFC0122174B1A60082404E0E0B2042100F0F1FC0134112CF8DD0022124B1A6010E041F657339A4206D90BE0E0B2042100F0B9FC013400E0082425
:4008C000112CF6DD0022084B1A60084A13680133136042F21072934202DD0022034B1A60002010BD6882FF1F7C81FF1F8081FF1F1081FF1F2DE9F041274B1B88274AB2F8DC
:400900000080274A1588274AD2E90067264A1488D72B04DD0020042100F062FC03E00020042100F083FCB8F5C86F04DD0120042100F056FC03E00120042100F077FCFA2D7D
:4009400004DD0220042100F04BFC03E00220042100F06CFC304639460022144B01F0FAFF20B10320042100F03BFC03E00320042100F05CFC0420014600F058FC272C04DCA1
:400980000520042100F02CFC03E00520042100F04DFC0020BDE8F0819A82FF1F3C82FF1FF881FF1F4082FF1F0082FF1F00002840FEE700BF08B5104E104D16E029686B682E
:4009C000AC68002204E051F8040B43F8040B0432A242F8D1E868002203E0002143F8041B04328242F9D11035013E002EE6D102F0F5FAFFF749FBFEE7010000007C360000A8
:400A000008B5134A134B1A60134A136843F40073136000230AE0032B03D8104A52F8231000E00F490F4A42F8231001332F2BF2D90D4B1A780D4B1A700A4A0D4B1A6000F0A9
:400A4000C3F800F02DFE00220A4B1A6008BD00BF0004FA050CED00E014ED00E000000000B10900000080FF1FBC7600400481FF1F08ED00E00081FF1FFEE700BFF0B4002223
:400A8000174611E050F82760F3B226F0FF0608E001EB420511F812406D78A5550132013BDBB2002BF4D101371A2FEBD9F0BC7047064B1B78DBB203F00701054A11701B0910
:400AC000013213704422034B1A707047CF0100496E5800407658004008B50A46002102F0AEFA08BD38B54FF49C722B4B1A8018232A4A137040F21A610232118002321370E8
:400B000047F22F52264B1A80192502331D70022203F276231A7008224FF040231A70032203F500731A701F4B1B78DBB21E4A137010221E4B1A8041F25122023B1A800024F9
:400B40000CE01B4B1B7803F0010343EA440404F003044FF4F07000F093FD013D0DB1032CEFD115B90320FFF787FF124B4FF480721A8007221A7000220F490A704820023140
:400B800008701A700222033B1A700C4A137843F00703137038BD00BF80400040824000408840004008010049A146004022420040254200400440004006400040A2430040F5
:400BC00008B502F031FA08BD38B572B63F4A137843F00403137000240CE03D4963001A1952000A4423445B00C8589188FFF774FF0134E4B2052CF0D94FF090403549FFF7F8
:400C00003DFF35480421FFF767FF34480421FFF763FF334833490422FFF7D2FF32480421FFF75AFF31480421FFF756FF304831490422FFF7C5FF304A137843F00203137034
:400C40001032137843F0020313702C4C237843F040032370A2F58632513A137843F010031370274827490822FFF7AAFF264827490822FFF7A5FF264826490822FFF7A0FFBC
:400C8000254826490822FFF79BFF254825490822FFF796FF244825490822FFF791FF244A137843F008031370224D61232B70FFF719FFC1232B7001221F4B1A70FFF7F8FEAC
:400CC0001E4821460E22FFF77BFF38BDE8460040543000006C000048007600400876004010760040DC040048187600402076004028760040E004004803500140A043004025
:400D000002510040AC040048C2510040B4040048F2510040BC04004812510040C404004822510040CC04004832510040D4040048224300400048004004000840B04300403D
:400D400010B50120014641F6FF724FF4804300F019FC474B1870FF2808D13BE000F032FD434B234418710134E4B200E00024012CF4D9002415E014F0010F08D13C4B1A1938
:400D80001079012152790B4600F036FD07E0384B1A191079012152790B4600F02DFD0134E4B2002CE7D0324B587901211A790B4600F022FD00240BE02D4B23442D492144F1
:400DC000187989B246F27B4200F02AFD0134E4B2012CF1D90120014641F6FF724FF4804300F0EEFB224B9871FF2808D121E000F0E9FC1F4B234418720134E4B200E00024F4
:400E0000002CF4D01A4B1A7A10460121052300F0F3FC00240BE0164B234417492144187A89B246F27A4200F0FBFC0134E4B2002CF1D00120014641F6FF724FF4804301F047
:400E40003BF90B4B5872FF2810D000F0BBFC0246074CA07201210B4600F0CEFC04F10C01A07A89B246F2274200F0DAFC10BD00BF8C81FF1F1481FF1FE882FF1F10B50D4CC8
:400E80002078217900F06EFCA079217A00F06AFC607AA17A00F066FC2078012100F01AFCA079012100F016FC607A012100F012FC10BD00BF8C81FF1F08B5FFF7DFFF0023F3
:400EC000044A137010321370012350321370024A537308BD176400408C81FF1F002304E00021034AD1540133DBB2002BF8D07047E882FF1F08B5FFF7F1FF094B9B7B23B900
:400F0000FFF71EFF0122064B9A73002305E0044A1A44FF2111730133DBB2002BF7D008BD8C81FF1F08B5054BDB7B23B9FFF7E2FF0122024BDA73FFF7BFFF08BD8C81FF1FAB
:400F400000F00F00014B185C704700BF78300000092807D831B910B50C46FFF7F1FF024B185510BD704700BFE882FF1F10B4044628B94B00DBB20133084AD05408E04B0074
:400F8000DBB20133064A1A4492F83002034AD054044B19440C735DF8044B70471481FF1F783000008C81FF1F70B50120014641F6FF724FF4804300F023FB6A4B1870FF28DC
:400FC00008D13BE000F0FEFB664B234418710134E4B200E00024092CF4D9002415E014F0010F08D15F4B1A191079012152790B4600F002FC07E05B4B1A19107901215279D4
:401000000B4600F0F9FB0134E4B2082CE7D9554B587B01211A790B4600F0EEFB00240BE0504B234450492144187989B246F2764200F0F6FB0134E4B2092CF1D9012001468C
:4010400041F6FF724FF4804300F0F8FA454B9873FF280FD164E000F0B5FB424D2544287400F0B0FB287600F0ADFB85F820000134E4B200E00024042CEDD9002418E0394EF0
:401080003519287C01212A7E212300F0B5FB287E012195F82020212300F0AEFB0134264495F820000121327C052300F0A5FBE4B2032CE4D92B4C207D0121227F212300F0BD
:4010C0009BFB207F012194F82420212300F094FB94F824000121227C052300F08DFB00241CE0204D254421492144287C89B246F2775200F095FB1E492144287E89B246F2EC
:40110000755200F08DFB1B49214495F8200089B246F2765200F084FB0134E4B2042CE0D90120014641F6FF724FF4804300F0B4FB0C4B83F82500FF2812D000F043FB024671
:40114000084C84F826000521012300F055FB04F1280194F8260089B246F2255200F060FB70BD00BF9C81FF1F2481FF1FEC82FF1FFC82FF1FF482FF1F10B50E4C20782179F3
:4011800000F0F0FAA07B217C00F0ECFA94F8250094F8261000F0E6FA2078012100F09AFAA07B012100F096FA94F82500012100F091FA10BD9C81FF1F08B5FFF7DDFF002381
:4011C000054A13701032137001234F321370034A82F82D3008BD00BF156500409C81FF1F04291BD8072806D8012383400C48425C1343435470470F2808D80838C0B20123FC
:4012000083400848425C1343435470471038C0B2012383400448425C13434354704700BFEC82FF1FFC82FF1FF482FF1F04291ED8072807D8012383400D48425C22EA030392
:40124000435470470F2809D80838C0B2012383400848425C22EA0303435470471038C0B2012383400448425C22EA030343547047EC82FF1FFC82FF1FF482FF1F04291BD85A
:40128000072806D8012383400C48425C5340435470470F2808D80838C0B2012383400848425C5340435470471038C0B2012383400448425C53404354704700BFEC82FF1F31
:4012C000FC82FF1FF482FF1F002308E000220549CA540549CA540549CA540133DBB2042BF4D97047EC82FF1FFC82FF1FF482FF1F08B5FFF7E9FF0B4B93F82E302BB9FFF769
:4013000053FE0122074B83F82E20002306E0054A1A44FF2182F828100133DBB2042BF6D908BD00BF9C81FF1F08B5064B93F82F302BB9FFF7DDFF0122024B83F82F20FFF73A
:401340003BFF08BD9C81FF1F00F00F00014B185C704700BFB832000000F00F0300090238C0B2052805D8044A02EB00100344187C70470020704700BFB83200002DE9F047A9
:4013800082B00D4614461F4600230093019304290AD9092903D84D1FEDB2012605E0A1F10A05EDB2022600E00026002803DB02464FF0000802E042424FF00108234614E05D
:4013C0005C48A0FB0210C008814600EB80004000101A03F1FF3AC0B2FFF7B6FF02AB534403F8080C4A465FFA8AF3002BE8D1022F32D1B8F1000F33D02D20FFF7ADFF8DF8EE
:4014000000002DE0994602A9194411F8081C3F2915D0B8F1000F23D03BB92D20FFF79CFF02AB994409F8080C1AE003F1FF382D20FFF792FF02AB434403F8080C10E0611E77
:401440008A4206D002A98944002109F8081C0132D2B20133DBB201E000221346A342D1D3012F62D11CE002AA1A4412F8082CA2B1042D10D8012E06D016B1022E06D008E0E2
:401480002D494A5507E02D494A5504E02C494A5501E029494A550135EDB20133DBB200E00023A342DFD316E0012E07D016B1022E08D00BE00022204B5A550AE000221F4B99
:4014C0005A5506E000221E4B5A5502E000221A4B5A550135EDB2A542E6D328E06319013B042B20D8012E0AD016B1022E0ED014E002AA224412F8091C0F4AD15413E002AA79
:40150000224412F8091C0D4AD1540CE002AA224412F8091C0A4AD15405E002AA224412F8091C054AD154013CE4B2002CD6D102B0BDE8F087CDCCCCCCEC82FF1FFC82FF1F8D
:40154000F482FF1F10B4044628B94B00DBB20133094AD05408E04B00DBB20133074A1A4492F83002044AD054054B194481F828405DF8044B704700BF2481FF1FB83200003F
:401580009C81FF1FF0B583B086460F4616461D460A4C0120207000230093019371463A4600F0ECF8207831462A4600F0C1F82078022100F0ABF8207803B0F0BD3481FF1F9B
:4015C000F0B583B084468E4617461E460B4C022525700023009301932846614672462B4600F0CCF820783946324600F0A1F82078294600F08BF8207803B0F0BD3581FF1F07
:40160000F0B583B086460F4616461D460A4C0420207000230093019371463A4600F0AEF8207831462A4600F083F82078022100F06DF8207803B0F0BD3681FF1FF0B583B032
:4016400086460F4616461D460B4C05232370002200920192184671463A4600F08FF8207831462A4600F064F82078022100F04EF8207803B0F0BD00BF3781FF1F00000000DC
:401680000230800803D000BF01380046FCD17047EFF3108072B6704780F31088704700BF0B4A7F2313708021517007E0DA0002F1804202F5F042013BDBB21370002BF5D151
:4016C000DB0003F1804303F5F04300221A7070473881FF1F172815D831B103010A495A5C42F020025A5405E0030107495A5C02F0DF025A540001044A835C43F0010383542A
:4017000000207047012070471070004017280BD80001064A835C03F0F10301F0070143EA4101815400207047012070471070004041F6FF73994201D14FF4005141F6FF73C2
:401740009A4201D14FF40052172808D8C00000F1804000F5EC408180C280002070470120704700BF172805D8034B03EB0010417200207047012070471070004017281BD808
:4017800010B4C00000F1804404F5EC44D201D2B201F07F01114321709DF804201201D2B203F00F03134363709DF8083003F00F03A3700020E07001E0012070475DF8044BEA
:4017C000704700BF10B5FFF763FF0A4B5B78182B0BD9084A1478013B5370E30003F1804303F5F0431B78137000E0FF24FFF754FF204610BD3881FF1F10F0800F0CD111F488
:40180000704F0BD1C00000F1804000F5F04001808270C37000207047012070470120704710F0800F08D1C00000F1804000F5F0408180C280002070470120704701BE7047E4
:4018400070B504460E46074B1D681F2802D90020FFF7F4FF04F01F04103455F8240045F8246070BD08ED00E038B504460D46072902D90020FFF7E2FF1F2C02D90020FFF74C
:40188000DDFF04F01F0000F1604000F564406D01EDB2057038BD00BFF0B583B086460F4616461D460A4C0320207000230093019371463A46FFF762FF207831462A46FFF7CB
:4018C00037FF20780221FFF721FF207803B0F0BD4081FF1F08B5134A136823F0010313604FF4F05300E0013B23B10E4A126812F0010FF8D19BB14FF480320B4B1A60FFF7C1
:40190000C7FE0A4A137803F0FE0313701032137803F0FE031370FFF7BFFE002008BD012008BD00BF10A0004080E100E0A6430040064B1A7842F001021A701B7813F0010F69
:4019400001D1012070470020704700BF04A0004008B5FFF79DFE154A137843F0010313701032137843F001031370FFF795FE41F201220F4B1A60FFF7DBFF4FF480320D4BFA
:401980001A600D4A136843F0010313604FF4107300E0013B23B1084A126812F0010FF8D00BB9012008BD002008BD00BFA643004000A0004000E100E010A00040064B1A78EA
:4019C00002F0FE021A701B7813F0010F01D0012070470020704700BF04A0004010F4004F07D1064B18801B889BB2834203D001207047022070470020704700BF16A00040C9
:401A000050B90D4B5A7802F0EF025A705B7813F0100F0CD001207047074B5A7842F010025A705B7813F0100F03D101207047002070470020704700BF14A0004030B4841E63
:401A4000E4B20D2C28D88C1EE4B2052C02D92BBB012925D1032A25D8824225D88A4225D8164C657805F0F005284360706478E4B284421DD10BB9002000E002204B01DBB248
:401A80009200D2B2134303430C4A13701278D2B29A420FD001200EE002200CE002200AE0022008E0022006E0022004E0022002E0012000E0002030BC704700BF14A0004016
:401AC00050B90D4B1A7802F0EF021A701B7813F0100F0CD001207047074B1A7842F010021A701B7813F0100F03D101207047002070470020704700BF14A0004050B90D4B48
:401B00001A7802F0FE021A701B7813F0010F0CD001207047074B1A7842F001021A701B7813F0010F03D101207047002070470020704700BF14A00040044B18801B889BB210
:401B4000834201D0012070470020704704A0004003785B01214A416841F08011995003785B0199189A5802F07F12436823F080139A4228D183680B610278184B03EB42130C
:401B800019698268914220D1C2685A610278134B03EB42135969C268914218D14FF0FF329A6102780D4B03EB42139A69B2F1FF3F0FD10022DA610278084B03EB4213DB6958
:401BC0004BB101207047012070470120704701207047012070470020704700BFA0A0004001780901114A436843F4000343F008038B5003781B0199189B580D4A1A40436828
:401C000023F4000323F008039A420BD183684B600278064B03EB02135A6883689A4203D001207047012070470020704720A00040F7007F0038B5002409E004EB44039B002C
:401C40000E481844FFF7CCFF28B90134E4B2072CF3D9002500E001254DB10DE0084800EB0410FFF775FF30B90134E4B200E000240F2CF3D900E00125284638BDF834000023
:401C80005835000008B5FFF703FD324A137843F0010313701032137843F001031370FFF7FBFC2D4A137803F0FE0313704FF4F05300E0013B23B1284A127812F0010FF8D1E9
:401CC000002B3CD04FF48032244B1A6010202449FFF7B6FD10200721FFF7C6FD0320FFF77DFE88B9FFF78CFE80B9062003210A460023FFF7A3FE58B9FFF7E2FE50B9FFF7B0
:401D0000FDFE48B1012308E0012306E0012304E0012302E0012300E0002393B9FFF78AFF88B941F20120FFF707FF70B90A4B00221A701B7813F0010F09D0012008BD012058
:401D400008BD012008BD012008BD012008BD002008BD00BFA643004010A0004080E100E01D1E000008B5074B1B7813B9FFF78AFF00E0002020B90122024B1A70FFF7E8FD18
:401D800008BD00BFCC81FF1F08B50222034B5A70FFF714FEFFF79EFD08BD00BF00A0004038B510221A4B5A70012500242CE0194B1B881D4224D06301174A9B5C13F0200F52
:401DC0001ED015F03F0F18D0052C19D8DFE804F00306090C0F1200F041F811E000F070F80EE000F09FF80BE000F0CEF808E000F0FFF805E000F02EF902E0204600F020F8FB
:401E00006D00ADB20134E4B20F2CD0D938BD00BF00A0004008A00040A0A0004008B5074B5B7813F0020F01D0FFF7AEFF034B5B7813F0100F01D0FFF7B3FF08BD00A0004060
:401E40004001054BC25C12F0010F03D0C25C42F00102C254704700BFA0A000400122124B1A60124B987800F00F00114B18600022104B1A600EE0032B02D9C3F10B0101E0A6
:401E8000C3F103010C4A515C0C4A42F823100133084A1360074B1B689842ECD8034A137843F00103137070476481FF1FA0A000408881FF1FD081FF1FA8A000406C82FF1F42
:401EC0000122124B1A60124B987800F00F00114B18600022104B1A600EE0032B02D9C3F10B0101E0C3F103010C4A515C0C4A42F823100133084A1360074B1B689842ECD82F
:401F0000034A137843F00103137070476881FF1FC0A000408881FF1FD081FF1FC8A00040C482FF1F0122124B1A60124B987800F00F00114B18600022104B1A600EE0032BC2
:401F400002D9C3F10B0101E0C3F103010C4A515C0C4A42F823100133084A1360074B1B689842ECD8034A137843F00103137070476C81FF1FE0A000408881FF1FD081FF1F51
:401F8000E8A000401882FF1F0122144B1A60144B987800F00F00134B18600022124B1A6011E0032B02D9C3F10B0201E0C3F1030202F1804202F52142117A0C4A42F82310B6
:401FC0000133094A1360084B1B689842E9D8044A137843F001031370704700BF7081FF1F00A100408881FF1FD081FF1FD881FF1F0122124B1A60124B987800F00F00114BAE
:4020000018600022104B1A600EE0032B02D9C3F10B0101E0C3F103010C4A515C0C4A42F823100133084A1360074B1B689842ECD8034A137843F00103137070477481FF1F53
:4020400020A100408881FF1FD081FF1F28A100404882FF1F0122124B1A60124B987800F00F00114B18600022104B1A600EE0032B02D9C3F10B0101E0C3F103010C4A515C54
:402080000C4A42F823100133084A1360074B1B689842ECD8034A137843F00103137070477881FF1F40A100408881FF1FD081FF1F48A10040A482FF1FF0B583B086460F4674
:4020C00016461D460A4C0023237000930193184671463A46FFF752FB207831462A46FFF727FB20780221FFF711FB207803B0F0BD4181FF1F014B1878704700BF656500408E
:4021000081F0004102E000BF83F0004330B54FEA41044FEA430594EA050F08BF90EA020F1FBF54EA000C55EA020C7FEA645C7FEA655C00F0E2804FEA5454D4EB5555B8BFF3
:402140006D420CDD2C4480EA020281EA030382EA000083EA010180EA020281EA0303362D88BF30BD11F0004F4FEA01314FF4801C4CEA113102D0404261EB410113F0004FE1
:402180004FEA03334CEA133302D0524263EB430394EA050F00F0A780A4F10104D5F1200E0DDB02FA0EFC22FA05F2801841F1000103FA0EF2801843FA05F359410EE0A5F14F
:4021C00020050EF1200E012A03FA0EFC28BF4CF0020C43FA05F3C01851EBE37101F0004507D54FF0000EDCF1000C7EEB00006EEB0101B1F5801F1BD3B1F5001F0CD3490869
:402200005FEA30004FEA3C0C04F101044FEA445212F5800F80F09A80BCF1004F08BF5FEA500C50F1000041EB045141EA050130BD5FEA4C0C404141EB010111F4801FA4F1EA
:402240000104E9D191F0000F04BF01460020B1FA81F308BF2033A3F10B03B3F120020CDA0C3208DD02F1140CC2F10C0201FA0CF021FA02F10CE002F11402D8BFC2F1200CF7
:4022800001FA02F120FA0CFCDCBF41EA0C019040E41AA2BF01EB0451294330BD6FEA04041F3C1CDA0C340EDC04F11404C4F1200220FA04F001FA02F340EA030021FA04F375
:4022C00045EA030130BDC4F10C04C4F1200220FA02F001FA04F340EA0300294630BD21FA04F0294630BD94F0000F83F4801306BF81F480110134013D4EE77FEA645C18BF20
:402300007FEA655C29D094EA050F08BF90EA020F05D054EA000C04BF1946104630BD91EA030F1EBF0021002030BD5FEA545C05D14000494128BF41F0004130BD14F580040E
:402340003CBF01F5801130BD01F0004545F0FE4141F470014FF0000030BD7FEA645C1ABF194610467FEA655C1CBF0B46024650EA013406BF52EA033591EA030F41F4002192
:4023800030BD00BF90F0000F04BF0021704730B54FF4806404F132044FF000054FF0000150E700BF90F0000F04BF0021704730B54FF4806404F1320410F0004548BF404267
:4023C0004FF000013EE700BF42004FEAE2014FEA31014FEA02701FBF12F07F4393F07F4F81F06051704792F0000F14BF93F07F4F704730B54FF4607401F0004521F0004189
:4024000020E700BF50EA010208BF704730B54FF000050AE050EA010208BF704730B511F0004502D5404261EB41014FF4806404F132045FEA915C3FF4DCAE4FF003025FEA69
:40244000DC0C18BF03325FEADC0C18BF033202EBDC02C2F1200300FA03FC20FA02F001FA03FE40EA0E0021FA02F11444C1E600BF70B54FF0FF0C4CF4E06C1CEA11541DBF43
:402480001CEA135594EA0C0F95EA0C0F00F0DEF82C4481EA030621EA4C5123EA4C5350EA013518BF52EA033541F4801143F4801338D0A0FB02CE4FF00005E1FB02E506F0C2
:4024C0000042E0FB03E54FF00006E1FB03569CF0000F18BF4EF0010EA4F1FF04B6F5007F64F5407404D25FEA4E0E6D4146EB060642EAC62141EA55514FEAC52040EA5E508F
:402500004FEACE2EB4F1FD0C88BFBCF5E06F1ED8BEF1004F08BF5FEA500E50F1000041EB045170BD06F0004646EA010140EA020081EA0301B4EB5C04C2BFD4EB0C0541EA9C
:40254000045170BD41F480114FF0000E013C00F3AB8014F1360FDEBF002001F0004170BDC4F10004203C35DA0C341BDC04F11404C4F1200500FA05F320FA04F001FA05F2D1
:4025800040EA020001F0004221F0004110EBD37021FA04F642EB06015EEA430E08BF20EAD37070BDC4F10C04C4F1200500FA04F320FA05F001FA04F240EA020001F000411B
:4025C00010EBD37041F100015EEA430E08BF20EAD37070BDC4F1200500FA05F24EEA020E20FA04F301FA05F243EA020321FA04F001F0004121FA04F220EA020000EBD370BC
:402600005EEA430E08BF20EAD37070BD94F0000F0FD101F00046400041EB010111F4801F08BF013CF7D041EA060195F0000F18BF704703F00046520043EB030313F4801F80
:4026400008BF013DF7D043EA0603704794EA0C0F0CEA135518BF95EA0C0F0CD050EA410618BF52EA4306D1D181EA030101F000414FF0000070BD50EA410606BF10461946D6
:4026800052EA430619D094EA0C0F02D150EA013613D195EA0C0F05D152EA03361CBF104619460AD181EA030101F0004141F0FE4141F470014FF0000070BD41F0FE4141F4D3
:4026C000780170BD70B54FF0FF0C4CF4E06C1CEA11541DBF1CEA135594EA0C0F95EA0C0F00F0A7F8A4EB050481EA030E52EA03354FEA013100F088804FEA03334FF0805554
:4027000045EA131343EA12634FEA022245EA111545EA10654FEA00260EF000419D4208BF964244F1FD0404F5407402D25B084FEA3202B61A65EB03055B084FEA32024FF46E
:4027400080104FF4002CB6EB020E75EB030E22BFB61A754640EA0C005B084FEA3202B6EB020E75EB030E22BFB61A754640EA5C005B084FEA3202B6EB020E75EB030E22BFDF
:40278000B61A754640EA9C005B084FEA3202B6EB020E75EB030E22BFB61A754640EADC0055EA060E18D04FEA051545EA16754FEA06164FEAC30343EA52734FEAC2025FEA90
:4027C0001C1CC0D111F4801F0BD141EA00014FF000004FF0004CB6E711F4801F04BF01430020B4F1FD0C88BFBCF5E06F3FF6AFAEB5EB030C04BFB6EB020C5FEA500C50F1A4
:40280000000041EB045170BD0EF0004E4EEA113114EB5C04C2BFD4EB0C0541EA045170BD41F480114FF0000E013C90E645EA060E8DE60CEA135594EA0C0F08BF95EA0C0FF3
:402840003FF43BAF94EA0C0F0AD150EA01347FF434AF95EA0C0F7FF425AF104619462CE795EA0C0F06D152EA03353FF4FDAE1046194622E750EA410618BF52EA43067FF488
:40288000C5AE50EA41047FF40DAF52EA43057FF4EBAE12E74FF0FF3C06E000BF4FF0010C02E000BF4FF0010C4DF804CD4FEA410C7FEA6C5C4FEA430C18BF7FEA6C5C1BD0CE
:4028C00001B050EA410C0CBF52EA430C91EA030F02BF90EA020F0020704710F1000F91EA030F58BF994208BF90422CBFD8176FEAE37040F0010070474FEA410C7FEA6C5C4D
:4029000002D150EA013C07D14FEA430C7FEA6C5CD6D152EA033CD3D05DF8040B704700BF8446104662468C461946634600E000BF01B5FFF7B7FF002848BF10F1000F01BD7D
:402940004DF808EDFFF7F4FF0CBF012000205DF808FB00BF4DF808EDFFF7EAFF34BF012000205DF808FB00BF4DF808EDFFF7E0FF94BF012000205DF808FB00BF4DF808EDB9
:40298000FFF7CEFF94BF012000205DF808FB00BF4DF808EDFFF7C4FF34BF012000205DF808FB00BF4FEA410212F5001215D211D56FF47873B3EB625212D94FEAC12343F02E
:4029C000004343EA505311F0004F23FA02F018BF404270474FF00000704750EA013005D111F0004008BF6FF0004070474FF00000704700BF4A0011D212F5001211D20DD500
:402A00006FF47873B3EB62520ED44FEAC12343F0004343EA505323FA02F070474FF00000704750EA013002D14FF0FF3070474FF00000704780F0004002E000BF81F0004199
:402A400042001FBF5FEA410392EA030F7FEA226C7FEA236C6AD04FEA1262D2EB1363C1BFD218414048404140B8BF5B42192B88BF704710F0004F40F4000020F07F4018BF9F
:402A8000404211F0004F41F4000121F07F4118BF494292EA030F3FD0A2F1010241FA03FC10EB0C00C3F1200301FA03F100F0004302D5494260EB4000B0F5000F13D3B0F146
:402AC000807F06D340084FEA310102F10102FE2A51D2B1F1004F40EBC25008BF20F0010040EA03007047490040EB000010F4000FA2F10102EDD1B0FA80FCACF1080CB2EBD1
:402B00000C0200FA0CF0AABF00EBC25052421843BCBFD0401843704792F0000F81F4000106BF80F400000132013BB5E74FEA41037FEA226C18BF7FEA236C21D092EA030F92
:402B400004D092F0000F08BF0846704790EA010F1CBF0020704712F07F4F04D1400028BF40F00040704712F100723CBF00F50000704700F0004343F0FE4040F4000070474A
:402B80007FEA226216BF08467FEA23630146420206BF5FEA412390EA010F40F4800070474FF0000304E000BF10F0004348BF40425FEA000C08BF704743F0964301464FF00E
:402BC00000001CE050EA010208BF70474FF000030AE000BF50EA010208BF704711F0004302D5404261EB41015FEA010C02BF84460146002043F0B64308BFA3F18053A3F513
:402C00000003BCFA8CF2083AA3EBC25310DB01FA02FC634400FA02FCC2F12002BCF1004F20FA02F243EB020008BF20F00100704702F1200201FA02FCC2F1200250EA4C00EE
:402C400021FA02F243EB020008BF20EADC7070474FF0FF0C1CEAD0521EBF1CEAD15392EA0C0F93EA0C0F6FD01A4480EA010C400218BF5FEA41211ED04FF0006343EA5010A4
:402C800043EA5111A0FB01310CF00040B1F5000F3EBF490041EAD3715B0040EA010062F17F02FD2A1DD8B3F1004F40EBC25008BF20F00100704790F0000F0CF0004C08BF3F
:402CC00049024CEA502040EA51207F3AC2BFD2F1FF0340EAC250704740F400004FF00003013A5DDC12F1190FDCBF00F000407047C2F10002410021FA02F1C2F1200200FAEC
:402D000002FC5FEA310040F1000053EA4C0308BF20EADC70704792F0000F00F0004C02BF400010F4000F013AF9D040EA0C0093F0000F01F0004C02BF490011F4000F013B46
:402D4000F9D041EA0C018FE70CEAD15392EA0C0F18BF93EA0C0F0AD030F0004C18BF31F0004CD8D180EA010000F00040704790F0000F17BF90F0004F084691F0000F91F0A4
:402D8000004F14D092EA0C0F01D142020FD193EA0C0F03D14B0218BF084608D180EA010000F0004040F0FE4040F40000704740F0FE4040F4400070474FF0FF0C1CEAD0529D
:402DC0001EBF1CEAD15392EA0C0F93EA0C0F69D0A2EB030280EA010C49024FEA402037D04FF0805343EA111143EA10130CF000408B4238BF5B0042F17D024FF4000C8B4296
:402E000024BF5B1A40EA0C00B3EB510F24BFA3EB510340EA5C00B3EB910F24BFA3EB910340EA9C00B3EBD10F24BFA3EBD10340EADC001B0118BF5FEA1C1CE0D1FD2A3FF668
:402E400050AF8B4240EBC25008BF20F0010070470CF0004C4CEA50207F32C2BFD2F1FF0340EAC250704740F400004FF00003013A37E792F0000F00F0004C02BF400010F441
:402E8000000F013AF9D040EA0C0093F0000F01F0004C02BF490011F4000F013BF9D041EA0C0195E70CEAD15392EA0C0F08D142027FF47DAF93EA0C0F7FF470AF084676E7E1
:402EC00093EA0C0F04D14B023FF44CAF08466EE730F0004C18BF31F0004CCAD130F000427FF45CAF31F000437FF43CAF5FE700BF4FF0FF3C06E000BF4FF0010C02E000BF49
:402F00004FF0010C4DF804CD4FEA40024FEA41037FEA226C18BF7FEA236C11D001B052EA530C18BF90EA010F58BFB2EB030088BFC81738BF6FEAE17018BF40F001007047A6
:402F40007FEA226C02D15FEA402C05D17FEA236CE4D15FEA412CE1D05DF8040B704700BF844608466146FFE70FB5FFF7C9FF002848BF10F1000F0FBD4DF808EDFFF7F4FFB9
:402F80000CBF012000205DF808FB00BF4DF808EDFFF7EAFF34BF012000205DF808FB00BF4DF808EDFFF7E0FF94BF012000205DF808FB00BF4DF808EDFFF7D2FF94BF01205B
:402FC00000205DF808FB00BF4DF808EDFFF7C8FF34BF012000205DF808FB00BF0E4B70B51E460E4C0025E41AA410A54204D056F8253098470135F8E700F02EFB084B094C32
:403000001E46E41AA4100025A54204D056F8253098470135F8E770BD6436000064360000643600006C36000010B5431E0A44914204D011F8014B03F8014FF8E710BD0346B6
:403040000244934202D003F8011BFAE7704700000000000040510040300000000140001000140140000800400140000A004C014000020050014020003F065B4F666D7D07F4
:403080007F6F777C395E7971000000000000000000000000004080003F065B4F666D7D077F6F00000048000000777C585E79713D74101E763855545C7367506D781C1C1DE9
:4030C000766E5B000000000800777C585E79713D74101E763855545C7367506D781C1C1D766E5B0000000000240000000000000000000012001200003F06DBCFE6EDFD07B3
:40310000FFEFF78F390FF9F100000200000000000C213F00200000002400000000000000000000000000001000001200120000000012000C00050900000808001200242869
:403140002D1524000000000000000000000000000010000C1210000000080000120020102D1524000000000000302000000000200000C00000C000003F06DBCFE6EDFD0745
:40318000FFEF000000C8008300F78F390FF9F1BDF6091E703836363FF33FF3ED013E3036000009000000000800F7FCD8DEF9F1EFF4001E7000D4D4DCF33FD0EDC01C101CAA
:4031C000000009000000000090000303030303000303034A00480303FF0C773F8CBBFB0FFF8FCF3FF33FF3C300000800000000003084FF0080030000900003030303030013
:40320000030300000003004200034A0048030302034800310014240003202303480090A0B4549000000000000041410149814B494140486A48434341094942224B40804075
:40324000B44981000000000000C08000000000800000000000000000FF0C773F8CBBFB0FFF8F00000030000700CF3FF33FF3C3FBCC337CC0F0CCCCFFC7FFC7BB03FCC0CCB3
:4032800000003300000000300070E060606002A1C000200000480860C19100100070407800A0200000000000FFFEFFFDFFFBFFF7FFEFFFDFFFBFFF7F3F065B4F666D7D0787
:4032C0007F6F777C395E7971000000000000000000000000004080003F065B4F666D7D077F6F00000048000000777C585E79713D74101E763855545C7367506D781C1C1DA7
:40330000766E5B000000000800777C585E79713D74101E763855545C7367506D781C1C1D766E5B0000000000240000000000000000000012001200003F06DBCFE6EDFD0770
:40334000FFEFF78F390FF9F100000200000000000C213F00200000002400000000000000000000000000001000001200120000000012000C00050900000808001200242827
:403380002D1524000000000000000000000000000010000C1210000000080000120020102D1524000000000000302000000000200000C00000C000003F06DBCFE6EDFD0703
:4033C000FFEF000000C8008300F78F390FF9F1BDF6091E703836363FF33FF3ED013E3036000009000000000800F7FCD8DEF9F1EFF4001E7000D4D4DCF33FD0EDC01C101C68
:40340000000009000000000090000303030303000303034A00480303FF0C773F8CBBFB0FFF8FCF3FF33FF3C300000800000000003084FF00800300009000030303030300D0
:40344000030300000003004200034A0048030302034800310014240003202303480090A0B4549000000000000041410149814B494140486A48434341094942224B40804033
:40348000B44981000000000000C08000000000800000000000000000FF0C773F8CBBFB0FFF8F00000030000700CF3FF33FF3C3FBCC337CC0F0CCCCFFC7FFC7BB03FCC0CC71
:4034C00000003300000000300070E060606002A1C000200000480860C19100100070407800A0200000000000FFFEFFFDFFFBFFF7FFEFFFDFFFBFFF7F0000000008008800FB
:4035000000000000010000000800880000000000020000000800880000000000030000000800880000000000040000000800880000000000050000000800880000000000AC
:403540000600000008008800000000000700000008008800000000000000000028000000F9FF1F00000000DE0100000028000000F9FF1F00000020DE020000002800000099
:40358000F9FF1F00000040DE0300000028000000F9FF1F00000060DE0400000028000000F9FF1F00000080DE0500000028000000F9FF1F000000A0DE0600000000000000ED
:4035C00000000000000000000700000000000000000000000000000008000000000000000000000000000000090000000000000000000000000000000A00000000000000A9
:4036000000000000000000000B0000000000000000000000000000000C0000000000000000000000000000000D0000000000000000000000000000000E0000000000000058
:4036400000000000000000000F000000000000000000000000000000F8B500BFF8BC08BC9E4670474D000000010A0000F8B500BFF8BC08BC9E4670472900000090360000F6
:403680000881FF1F40000000C00100000000000000000000FF00000088130000FFFEFFFDFFFBFFF7FFEFFFDFFFBFFF7FFFFEFFFDFFFBFFF7FFEFFFDFFFBFFF7FFFFFFFFFEA
:4036C0007F8000003F000000FFFF0000000000000000000000000000000000000000000000000000000000000000000000000000000000000000000000000000000000008E
:403700000000000000000000000000000000000000000000000000000000000000000000000000000000000000000000000000000000000000000000000000000000000089
:403740000000000000000000000000000000000000000000000000000000000000000000000000000000000000000000000000000000000000000000000000000000000049
:403780000000000000000000000000000000000000000000000000000000000000000000000000000000000000000000000000000000000000000000000000000000000009
:4037C00000000000000000000000000000000000000000000000000000000000000000000000000000000000000000000000000000000000000000000000000000000000C9
:020000040003F7
:0200000480007A
:400000000C52004004030140080501403A0601403607014005090140040A01400E0B014031140140401501401C1601403317014001190140031B01400A40014014410140A0
:400040000D420140124301400A4501400E460140084701401048014022490140134C0140144D014004500140025101400032019608C009A41055119C186919AA608461C854
:40008000781A79339A04A304AA04AB048F889A04A304A480A880E240E640EE04050807040D0112031504160117081B021E0228032B022D0233033403350C3F10580459047A
:4000C0005B045C115F01850487028E018F019501A502A704AA01B306B401B701BF04C025C550C706C812C9FFCAFFCBFFCD10CE70CF0FD008D201D804D904DA04DB04DC1124
:40010000DD11DF01E010E1BCE210E358E490E55801400C080E400F011008172018041B101F2020022204252027202B102C082D803008372839403A043E403F08400448016E
:400140004B01500869406A406EA86F807480831086408D208E049A049E019F08A304A480A780AA01C001C2B0C442CA32CC62CE5AD004D208E240E404E640EE02AD09B010A7
:40018000E404E80AEE025B045F01DB04DF01681069916C027080710872088402860889108C808D40E008E402EE04020103010A020D010E030F02170225022A0132033603D2
:4001C00037033B805201580459045B045C115F018E0193039401A701AB02AD03B503B601C031C660C705C818C9FFCAFFCBFFCD10CE70CF0FD008D804D904DA04DB04DF015F
:40020000E010E1BCE210E358E490E5580011014007010F201008181019881D802001270429082F2A30083701380139404580470857385E406A806B016D846E206F807414C7
:400240007641820183808414861089448A408E408F04914096809B089D809F01A008A302A730A810AB20AD40AE80B080B150B420B640C08BC220C402CA72CC82CE09D050A3
:40028000D610E220E440E690EC08EE100C011202130116021C02270130033501580459045B045F0186028A018C018E028F029B019C029F03A701B203B703BA08D804D90427
:4002C000DB04DF0100100321070109800D800E800F20181019081E801F0221C0270829082F203240332037013980688069106A446C506D806F087020714173107410768173
:40030000772081018308871088108A048C4091409D809E019F08A008AB20AE04B210C087C2B1CA42CC8CCE08EA80E4B0E420E880ECE813801F013B083C103F084004C44072
:40034000C620CEE0D01002803A043E205308560258185D086201644094149708A704AB81C010CE60D4A0D6E0D8C0E880EC2050808C0C941497089C589D089E24A280A70C2B
:40038000AA03D420EA20EE208010828087088D088E20941097089C409D089E24A280A70CA880AC10E420E6C0EA20EE405040530254815B085C0261026780D407D607D803A7
:4003C000848288018C408F0894C097809C029F08A481A502A702A840E001E40A83809440A640AD02AE40AF40B302EC015004530255085F808004818086209E04AB04AF0430
:40040000B040D4E0D620E230E680EE301708531155105D8063426501664070027620810183018640874188028B108E048F0899809A209E04A110A908AB02AF80B510C420D0
:40044000D4E0D6E0D8C0DC80DE20E230E670EAE058085B105F046102670870027F02880289028C089440A380A640D401D603D803DC01DE04E40D18401E80738074087B80DC
:400480008B809440A008A380A640AF04B008B306B710C60CDC01DE06E404E801EC0700020A0210031A0310AA110A000001FEFE00FE00000002CFCD00CD000000003F3F0073
:4004C0003F00000000F4F400F400000000FFFF00FF00000000FFFF00FF000000000200000005000000000000000000000000000000000000000000000000000000000000E0
:4005000000000000000000000000000000000000000000000000000000000000000000000000000000000000000000000000000000000000000000000000000000000000BB
:40054000000000000000000000000000000000000000000000000000000000000000000000000000000000000000000000000000000000000000000000000000000000007B
:40058000000000000000000000000000000000000000000000000000000000000000000000000000000000000000000000000000000000000000000000000000000000003B
:4005C00000000000000000000000000000000000000000000000000000000000000000000000000000000000000000000000000000000000000000000000000000000000FB
:0200000490006A
:0400000000004005B7
:0200000490105A
:04000000BC90ACAF55
:0200000490303A
:02000000E48E8C
:0200000490402A
:4000000000000000000000000000000000000000000000000000000000000000000000000000000000000000000000000000000000000000000000000000000000000000C0
:400040000000000000000000000000000000000000000000000000000000000000000000000000000000000000000000000000000000000000000000000000000000000080
:400080000000000000000000000000000000000000000000000000000000000000000000000000000000000000000000000000000000000000000000000000000000000040
:4000C0000000000000000000000000000000000000000000000000000000000000000000000000000000000000000000000000000000000000000000000000000000000000
:0200000490501A
:0C00000000012E16106900012E2BF4F7F1
:00000001FF