:400000000080002011000000B1040000B104000008B5044B1A6803F53F5302331A6000F049FA00BFFA46004010B5054C237833B9044B13B10448AFF300800123237010BDCA
:400040004081FF1F0000000014250000084B10B51BB108480849AFF300800848036803B910BD074B002BFBD0BDE81040184700BF00000000142500004481FF1F0881FF1F5F
:40008000000000000000000010B5774C2268636843EA0223754A1380A068E36843EA002001F02EFF6AA3D3E9002301F09FFF02F0D7F96F4B18802069636943EA002001F0DF
:4000C0001FFF63A3D3E9002301F090FF02F0C8F9684B1880A069E36943EA002001F010FF5BA3D3E9002301F081FF02F0B9F9624B1880624C2068636843EA002001F000FF68
:4001000053A3D3E9002301F071FF02F0A9F95C4B1880A068E36843EA002001F0F1FE4EA3D3E9002301F062FF02F09AF9554B18802069636943EA002001F0E2FE44A3D3E941
:40014000002301F053FF02F08BF94F4B1880A069E36943EA002001F0D3FE3DA3D3E9002301F044FF02F07CF9484B1880484B19685A6842EA012247490A809968DA6842EADA
:40018000012245490A8019695A6942EA012243490A809A69DB6943EA0223414A1380414C2268636843EA02233F4A1380A068E36843EA002001F0A4FE29A3D3E9002301F084
:4001C00015FF3A4BC3E900012069636943EA002001F096FE1EA3D3E9002301F007FF02F03FF9334B1880A069E36943EA002001F087FE17A3D3E9002301F0F8FE02F030F908
:400200002C4B18802C4B19685A6842EA01222B490A809968DA6842EA012229490A8019695A6942EA012227490A809A69DB6943EA0223254A1380254A1168536843EA0123FD
:40024000234A13800122234B1A60002010BD00BF9A9999999999B93FFCA9F1D24D62503F7B14AE47E17A843F5C82FF1F5882FF1F8E82FF1FEA81FF1FF481FF1FB482FF1F5E
:400280008A82FF1F8882FF1FF081FF1FEC81FF1F0882FF1F2C82FF1FF881FF1FF281FF1FEE81FF1FC881FF1FF681FF1F3082FF1F8682FF1F9082FF1F3882FF1F8C82FF1F83
:4002C000FA81FF1F8482FF1F2A82FF1F9482FF1FE881FF1F5C81FF1F70B500206A496B4BC3E900010F226A4B1A8062B601F08EFA01F0FCFA00F0DCFD00F08CFB0026654B58
:400300001E70FF20314600F0E1FEFF20012100F0DDFEFF20022100F0D9FEFF20032100F0D5FEFF20052100F0D1FEFF20062100F0CDFEFF20072100F0C9FEFF20082100F074
:40034000C5FEFF200A2100F0C1FEFF200B2100F0BDFEFF200C2100F0B9FEFF200D2100F0B5FE344635464C4B9C4215D12846002101220B4600F076FBB420002100F02EFC25
:400380000135424CD4E900013DA3D3E9002301F07BFCC4E90001002401340A2D00D100253E4B5B68CBB13D4B9B68B3B13B4BDB689BB13A4B1B6983B1384B5B696BB1374B72
:4003C0009B6953B1FFF760FE344B00225A609A60DA601A615A619A6101262E4B1B7813B1012B2CD0BFE7002EBDD02D4B188840F2DB53984207D8264B1888002104220B4687
:4004000000F080FD04E0002104220B4600F07AFD1E4BD3E900010022224B01F0E7FD01F0F7FF05210422002300F06CFD1E4B18880A210422002300F065FD002693E7002E96
:4004400091D0174B1888002104220B4600F05AFD0E4BD3E900010022124B01F0C7FD01F0D7FF05210422002300F04CFD0E4B18880A210422002300F045FD002673E700BFA3
:400480007B14AE47E17A843F00002A403082FF1F8E82FF1F2882FF1F20A107005C81FF1F5882FF1F000059408A82FF1FAFF30080FEE700BF08B5104E104D16E029686B6854
:4004C000AC68002204E051F8040B43F8040B0432A242F8D1E868002203E0002143F8041B04328242F9D11035013E002EE6D101F0D7FFFFF7F1FEFEE701000000402B000063
:4005000008B5134A134B1A60134A136843F40073136000230AE0032B03D8104A52F8231000E00F490F4A42F8231001332F2BF2D90D4B1A780D4B1A700A4A0D4B1A6000F0AE
:40054000BBF800F071FE00220A4B1A6008BD00BF0004FA050CED00E014ED00E000000000B10400000080FF1FBC7600400481FF1F08ED00E00081FF1FFEE700BFF0B40022F1
:40058000174611E050F82760F3B226F0FF0608E001EB420511F812406D78A5550132013BDBB2002BF4D101371A2FEBD9F0BC7047064B1B78DBB203F00701054A11701B0915
:4005C000013213704422034B1A707047CF0100496E5800407658004008B50A46002101F090FF08BD38B54FF49C72274B1A801823264A137040F21A6102321180023213700F
:400600000222234B1A7008224FF040231A70032203F500731A701F4B1B78DBB21E4A137010221E4B1A8041F25122023B1A80002419250CE01A4B1B7803F0010343EA440455
:4006400004F003044FF4F07000F0DEFD013D0DB1032CEFD115B90320FFF78EFF114B4FF480721A8007221A7000220F490A704820023108701A700222033B1A700B4A137877
:4006800043F00303137038BD80400040824000400043004008010049A146004022420040254200400440004006400040A243004008B501F01BFF08BD38B572B63F4A13785B
:4006C00043F00403137000240CE03D4963001A1952000A4423445B00C8589188FFF77CFF0134E4B2052CF0D94FF090403549FFF745FF35480421FFF76FFF34480421FFF7DC
:400700006BFF334833490422FFF7D2FF32480421FFF762FF31480421FFF75EFF304831490422FFF7C5FF304A137843F0020313701032137843F0020313702C4C237843F024
:4007400040032370A2F58632513A137843F010031370274827490822FFF7AAFF264827490822FFF7A5FF264826490822FFF7A0FF254826490822FFF79BFF254825490822F4
:40078000FFF796FF244825490822FFF791FF244A137843F008031370224D61232B70FFF721FFC1232B7001221F4B1A70FFF700FF1E4821460E22FFF77BFF38BDE84600406B
:4007C000182500006C000048007600400876004010760040D0040048187600402076004028760040D404004803500140A043004002510040A0040048C2510040A804004893
:40080000F2510040B004004812510040B804004822510040C004004832510040C8040048224300400048004004000840B043004010B50120014641F6FF724FF4804300F085
:4008400065FC474B1870FF2808D13BE000F07EFD434B234418710134E4B200E00024012CF4D9002415E014F0010F08D13C4B1A191079012152790B4600F082FD07E0384BD0
:400880001A191079012152790B4600F079FD0134E4B2002CE7D0324B587901211A790B4600F06EFD00240BE02D4B23442D492144187989B246F27B4200F076FD0134E4B2C3
:4008C000012CF1D90120014641F6FF724FF4804300F03AFC224B9871FF2808D121E000F035FD1F4B234418720134E4B200E00024002CF4D01A4B1A7A10460121052300F089
:400900003FFD00240BE0164B234417492144187A89B246F27A4200F047FD0134E4B2002CF1D00120014641F6FF724FF4804301F087F90B4B5872FF2810D000F007FD024648
:40094000074CA07201210B4600F01AFD04F10C01A07A89B246F2245200F026FD10BD00BF7C81FF1F0C81FF1FD482FF1F10B50D4C2078217900F0BAFCA079217A00F0B6FC6E
:40098000607AA17A00F0B2FC2078012100F066FCA079012100F062FC607A012100F05EFC10BD00BF7C81FF1F08B5FFF7DFFF0023044A137010321370012350321370024A63
:4009C000537308BD146500407C81FF1F002304E00021034AD1540133DBB2002BF8D07047D482FF1F08B5FFF7F1FF094B9B7B23B9FFF71EFF0122064B9A73002305E0044A4C
:400A00001A44FF2111730133DBB2002BF7D008BD7C81FF1F08B5054BDB7B23B9FFF7E2FF0122024BDA73FFF7BFFF08BD7C81FF1F00F00F00014B185C704700BF3C25000024
:400A400000F00F0300090238C0B2052805D8044A02EB00100344187C70470020704700BF3C2500002DE9F04782B014461F460023009301930D4649B1012903D84D1EEDB2FD
:400A8000012604E08D1EEDB2022600E00026002803DB02464FF0000802E042424FF00108234614E04B48A0FB0210C008814600EB80004000101A03F1FF3AC0B2FFF7B8FF23
:400AC00002AB534403F8080C4A465FFA8AF3002BE8D1022F32D1B8F1000F33D02D20FFF7AFFF8DF800002DE0994602A9194411F8081C3F2915D0B8F1000F23D03BB92D209A
:400B0000FFF79EFF02AB994409F8080C1AE003F1FF382D20FFF794FF02AB434403F8080C10E0611E8A4206D002A98944002109F8081C0132D2B20133DBB201E000221346A2
:400B4000A342D1D3012F40D113E002AA1A4412F8082C5AB145B916B1022E03D804E01E494A5501E01C494A550135EDB20133DBB200E00023A342E8D30CE016B1022E04D8CE
:400B800006E00022144B5A5502E00022124B5A550135EDB2A542F0D319E06319012B12D116B1022E08D80EE0013B02AA224412F8091C094AD15406E0013B02AA224412F814
:400BC000091C054AD154013CE4B2002CE5D102B0BDE8F087CDCCCCCCD482FF1F10B4044628B94B00DBB20133084AD05408E04B00DBB20133064A1A4492F83002034AD054F4
:400C0000044B19440C735DF8044B70470C81FF1F3C2500007C81FF1F70B50120014641F6FF724FF4804300F0AFFA6A4B1870FF2808D13BE000F08AFB664B23441871013490
:400C4000E4B200E00024092CF4D9002415E014F0010F08D15F4B1A191079012152790B4600F08EFB07E05B4B1A191079012152790B4600F085FB0134E4B2082CE7D9554B5F
:400C8000587B01211A790B4600F07AFB00240BE0504B234450492144187989B246F2764200F082FB0134E4B2092CF1D90120014641F6FF724FF4804300F084FA454B9873D5
:400CC000FF280FD164E000F041FB424D2544287400F03CFB287600F039FB85F820000134E4B200E00024042CEDD9002418E0394E3519287C01212A7E212300F041FB287E29
:400D0000012195F82020212300F03AFB0134264495F820000121327C052300F031FBE4B2032CE4D92B4C207D0121227F212300F027FB207F012194F82420212300F020FB6C
:400D400094F824000121227C052300F019FB00241CE0204D254421492144287C89B246F2775200F021FB1E492144287E89B246F2755200F019FB1B49214495F8200089B2C5
:400D800046F2765200F010FB0134E4B2042CE0D90120014641F6FF724FF4804300F040FB0C4B83F82500FF2812D000F0CFFA0246084C84F826000521012300F0E1FA04F142
:400DC000280194F8260089B246F2274200F0ECFA70BD00BF8C81FF1F1C81FF1FD882FF1FE882FF1FE082FF1F10B50E4C2078217900F07CFAA07B217C00F078FA94F8250092
:400E000094F8261000F072FA2078012100F026FAA07B012100F022FA94F82500012100F01DFA10BD8C81FF1F08B5FFF7DDFF0023054A137010321370012350321370034AF0
:400E400082F82D3008BD00BF176400408C81FF1F002308E000220549CA540549CA540549CA540133DBB2042BF4D97047D882FF1FE882FF1FE082FF1F08B5FFF7E9FF0B4BDB
:400E800093F82E302BB9FFF7C7FE0122074B83F82E20002306E0054A1A44FF2182F828100133DBB2042BF6D908BD00BF8C81FF1F08B5064B93F82F302BB9FFF7DDFF0122A5
:400EC000024B83F82F20FFF7AFFF08BD8C81FF1F00F00F00014B185C704700BF7C27000000F00F0300090238C0B2052805D8044A02EB00100344187C70470020704700BF3B
:400F00007C2700002DE9F04782B00D4614461F4600230093019304290AD9092903D84D1FEDB2012605E0A1F10A05EDB2022600E00026002803DB02464FF0000802E0424296
:400F40004FF00108234614E05C48A0FB0210C008814600EB80004000101A03F1FF3AC0B2FFF7B6FF02AB534403F8080C4A465FFA8AF3002BE8D1022F32D1B8F1000F33D041
:400F80002D20FFF7ADFF8DF800002DE0994602A9194411F8081C3F2915D0B8F1000F23D03BB92D20FFF79CFF02AB994409F8080C1AE003F1FF382D20FFF792FF02AB434406
:400FC00003F8080C10E0611E8A4206D002A98944002109F8081C0132D2B20133DBB201E000221346A342D1D3012F62D11CE002AA1A4412F8082CA2B1042D10D8012E06D09E
:4010000016B1022E06D008E02D494A5507E02D494A5504E02C494A5501E029494A550135EDB20133DBB200E00023A342DFD316E0012E07D016B1022E08D00BE00022204B8D
:401040005A550AE000221F4B5A5506E000221E4B5A5502E000221A4B5A550135EDB2A542E6D328E06319013B042B20D8012E0AD016B1022E0ED014E002AA224412F8091CF5
:401080000F4AD15413E002AA224412F8091C0D4AD1540CE002AA224412F8091C0A4AD15405E002AA224412F8091C054AD154013CE4B2002CD6D102B0BDE8F087CDCCCCCC1D
:4010C000D882FF1FE882FF1FE082FF1F10B4044628B94B00DBB20133094AD05408E04B00DBB20133074A1A4492F83002044AD054054B194481F828405DF8044B704700BF85
:401100001C81FF1F7C2700008C81FF1FF0B583B086460F4616461D460A4C0120207000230093019371463A4600F0ECF8207831462A4600F0C1F82078022100F0ABF8207804
:4011400003B0F0BD2C81FF1FF0B583B084468E4617461E460B4C022525700023009301932846614672462B4600F0CCF820783946324600F0A1F82078294600F08BF8207894
:4011800003B0F0BD2D81FF1FF0B583B086460F4616461D460A4C0420207000230093019371463A4600F0AEF8207831462A4600F083F82078022100F06DF8207803B0F0BD38
:4011C0002E81FF1FF0B583B086460F4616461D460B4C05232370002200920192184671463A4600F08FF8207831462A4600F064F82078022100F04EF8207803B0F0BD00BF92
:401200002F81FF1F000000000230800803D000BF01380046FCD17047EFF3108072B6704780F31088704700BF0B4A7F2313708021517007E0DA0002F1804202F5F042013B08
:40124000DBB21370002BF5D1DB0003F1804303F5F04300221A7070473081FF1F172815D831B103010A495A5C42F020025A5405E0030107495A5C02F0DF025A540001044AA2
:40128000835C43F00103835400207047012070471070004017280BD80001064A835C03F0F10301F0070143EA4101815400207047012070471070004041F6FF73994201D197
:4012C0004FF4005141F6FF739A4201D14FF40052172808D8C00000F1804000F5EC408180C280002070470120704700BF172805D8034B03EB00104172002070470120704742
:401300001070004017281BD810B4C00000F1804404F5EC44D201D2B201F07F01114321709DF804201201D2B203F00F03134363709DF8083003F00F03A3700020E07001E0F8
:40134000012070475DF8044B704700BF10B5FFF763FF0A4B5B78182B0BD9084A1478013B5370E30003F1804303F5F0431B78137000E0FF24FFF754FF204610BD3081FF1F09
:4013800010F0800F0CD111F4704F0BD1C00000F1804000F5F04001808270C37000207047012070470120704710F0800F08D1C00000F1804000F5F0408180C2800020704746
:4013C0000120704701BE704770B504460E46074B1D681F2802D90020FFF7F4FF04F01F04103455F8240045F8246070BD08ED00E038B504460D46072902D90020FFF7E2FFBF
:401400001F2C02D90020FFF7DDFF04F01F0000F1604000F564406D01EDB2057038BD00BFF0B583B086460F4616461D460A4C0320207000230093019371463A46FFF762FF88
:40144000207831462A46FFF737FF20780221FFF721FF207803B0F0BD3881FF1F08B5134A136823F0010313604FF4F05300E0013B23B10E4A126812F0010FF8D19BB14FF450
:4014800080320B4B1A60FFF7C7FE0A4A137803F0FE0313701032137803F0FE031370FFF7BFFE002008BD012008BD00BF10A0004080E100E0A6430040064B1A7842F00102A6
:4014C0001A701B7813F0010F01D1012070470020704700BF04A0004008B5FFF79DFE154A137843F0010313701032137843F001031370FFF795FE41F201220F4B1A60FFF776
:40150000DBFF4FF480320D4B1A600D4A136843F0010313604FF4107300E0013B23B1084A126812F0010FF8D00BB9012008BD002008BD00BFA643004000A0004000E100E01A
:4015400010A00040064B1A7802F0FE021A701B7813F0010F01D0012070470020704700BF04A0004010F4004F07D1064B18801B889BB2834203D001207047022070470020E6
:40158000704700BF16A0004050B90D4B5A7802F0EF025A705B7813F0100F0CD001207047074B5A7842F010025A705B7813F0100F03D101207047002070470020704700BFF6
:4015C00014A0004030B4841EE4B20D2C28D88C1EE4B2052C02D92BBB012925D1032A25D8824225D88A4225D8164C657805F0F005284360706478E4B284421DD10BB900202E
:4016000000E002204B01DBB29200D2B2134303430C4A13701278D2B29A420FD001200EE002200CE002200AE0022008E0022006E0022004E0022002E0012000E0002030BC29
:40164000704700BF14A0004050B90D4B1A7802F0EF021A701B7813F0100F0CD001207047074B1A7842F010021A701B7813F0100F03D101207047002070470020704700BFB7
:4016800014A0004050B90D4B1A7802F0FE021A701B7813F0010F0CD001207047074B1A7842F001021A701B7813F0010F03D101207047002070470020704700BF14A0004017
:4016C000044B18801B889BB2834201D0012070470020704704A0004003785B01214A416841F08011995003785B0199189A5802F07F12436823F080139A4228D183680B61DA
:401700000278184B03EB421319698268914220D1C2685A610278134B03EB42135969C268914218D14FF0FF329A6102780D4B03EB42139A69B2F1FF3F0FD10022DA61027896
:40174000084B03EB4213DB694BB101207047012070470120704701207047012070470020704700BFA0A0004001780901114A436843F4000343F008038B5003781B01991821
:401780009B580D4A1A40436823F4000323F008039A420BD183684B600278064B03EB02135A6883689A4203D001207047012070470020704720A00040F7007F0038B500241C
:4017C00009E004EB44039B000E481844FFF7CCFF28B90134E4B2072CF3D9002500E001254DB10DE0084800EB0410FFF775FF30B90134E4B200E000240F2CF3D900E001257D
:40180000284638BDBC2900001C2A000008B5FFF703FD324A137843F0010313701032137843F001031370FFF7FBFC2D4A137803F0FE0313704FF4F05300E0013B23B1284AD1
:40184000127812F0010FF8D1002B3CD04FF48032244B1A6010202449FFF7B6FD10200721FFF7C6FD0320FFF77DFE88B9FFF78CFE80B9062003210A460023FFF7A3FE58B9A4
:40188000FFF7E2FE50B9FFF7FDFE48B1012308E0012306E0012304E0012302E0012300E0002393B9FFF78AFF88B941F20120FFF707FF70B90A4B00221A701B7813F0010FE8
:4018C00009D0012008BD012008BD012008BD012008BD012008BD002008BD00BFA643004010A0004080E100E0A519000008B5074B1B7813B9FFF78AFF00E0002020B90122EC
:40190000024B1A70FFF7E8FD08BD00BFBC81FF1F08B50222034B5A70FFF714FEFFF79EFD08BD00BF00A0004038B510221A4B5A70012500242CE0194B1B881D4224D06301BE
:40194000174A9B5C13F0200F1ED015F03F0F18D0052C19D8DFE804F00306090C0F1200F041F811E000F070F80EE000F09FF80BE000F0CEF808E000F0FFF805E000F02EF945
:4019800002E0204600F020F86D00ADB20134E4B20F2CD0D938BD00BF00A0004008A00040A0A0004008B5074B5B7813F0020F01D0FFF7AEFF034B5B7813F0100F01D0FFF7EC
:4019C000B3FF08BD00A000404001054BC25C12F0010F03D0C25C42F00102C254704700BFA0A000400122124B1A60124B987800F00F00114B18600022104B1A600EE0032B50
:401A000002D9C3F10B0101E0C3F103010C4A515C0C4A42F823100133084A1360074B1B689842ECD8034A137843F00103137070476081FF1FA0A000407881FF1FC081FF1F02
:401A4000A8A000405C82FF1F0122124B1A60124B987800F00F00114B18600022104B1A600EE0032B02D9C3F10B0101E0C3F103010C4A515C0C4A42F823100133084A1360A2
:401A8000074B1B689842ECD8034A137843F00103137070476481FF1FC0A000407881FF1FC081FF1FC8A00040B482FF1F0122124B1A60124B987800F00F00114B18600022F9
:401AC000104B1A600EE0032B02D9C3F10B0101E0C3F103010C4A515C0C4A42F823100133084A1360074B1B689842ECD8034A137843F00103137070476881FF1FE0A000407F
:401B00007881FF1FC081FF1FE8A000400882FF1F0122144B1A60144B987800F00F00134B18600022124B1A6011E0032B02D9C3F10B0201E0C3F1030202F1804202F5214222
:401B4000117A0C4A42F823100133094A1360084B1B689842E9D8044A137843F001031370704700BF6C81FF1F00A100407881FF1FC081FF1FC881FF1F0122124B1A60124B83
:401B8000987800F00F00114B18600022104B1A600EE0032B02D9C3F10B0101E0C3F103010C4A515C0C4A42F823100133084A1360074B1B689842ECD8034A137843F00103BA
:401BC000137070477081FF1F20A100407881FF1FC081FF1F28A100403882FF1F0122124B1A60124B987800F00F00114B18600022104B1A600EE0032B02D9C3F10B0101E07B
:401C0000C3F103010C4A515C0C4A42F823100133084A1360074B1B689842ECD8034A137843F00103137070477481FF1F40A100407881FF1FC081FF1F48A100409482FF1F6A
:401C4000F0B583B086460F4616461D460A4C0023237000930193184671463A46FFF752FB207831462A46FFF727FB20780221FFF711FB207803B0F0BD3981FF1F81F00041CB
:401C800002E000BF83F0004330B54FEA41044FEA430594EA050F08BF90EA020F1FBF54EA000C55EA020C7FEA645C7FEA655C00F0E2804FEA5454D4EB5555B8BF6D420CDD92
:401CC0002C4480EA020281EA030382EA000083EA010180EA020281EA0303362D88BF30BD11F0004F4FEA01314FF4801C4CEA113102D0404261EB410113F0004F4FEA03338F
:401D00004CEA133302D0524263EB430394EA050F00F0A780A4F10104D5F1200E0DDB02FA0EFC22FA05F2801841F1000103FA0EF2801843FA05F359410EE0A5F120050EF11E
:401D4000200E012A03FA0EFC28BF4CF0020C43FA05F3C01851EBE37101F0004507D54FF0000EDCF1000C7EEB00006EEB0101B1F5801F1BD3B1F5001F0CD349085FEA300098
:401D80004FEA3C0C04F101044FEA445212F5800F80F09A80BCF1004F08BF5FEA500C50F1000041EB045141EA050130BD5FEA4C0C404141EB010111F4801FA4F10104E9D129
:401DC00091F0000F04BF01460020B1FA81F308BF2033A3F10B03B3F120020CDA0C3208DD02F1140CC2F10C0201FA0CF021FA02F10CE002F11402D8BFC2F1200C01FA02F14D
:401E000020FA0CFCDCBF41EA0C019040E41AA2BF01EB0451294330BD6FEA04041F3C1CDA0C340EDC04F11404C4F1200220FA04F001FA02F340EA030021FA04F345EA0301B4
:401E400030BDC4F10C04C4F1200220FA02F001FA04F340EA0300294630BD21FA04F0294630BD94F0000F83F4801306BF81F480110134013D4EE77FEA645C18BF7FEA655CAD
:401E800029D094EA050F08BF90EA020F05D054EA000C04BF1946104630BD91EA030F1EBF0021002030BD5FEA545C05D14000494128BF41F0004130BD14F580043CBF01F5CC
:401EC000801130BD01F0004545F0FE4141F470014FF0000030BD7FEA645C1ABF194610467FEA655C1CBF0B46024650EA013406BF52EA033591EA030F41F4002130BD00BF5C
:401F000090F0000F04BF0021704730B54FF4806404F132044FF000054FF0000150E700BF90F0000F04BF0021704730B54FF4806404F1320410F0004548BF40424FF0000157
:401F40003EE700BF42004FEAE2014FEA31014FEA02701FBF12F07F4393F07F4F81F06051704792F0000F14BF93F07F4F704730B54FF4607401F0004521F0004120E700BF87
:401F800050EA010208BF704730B54FF000050AE050EA010208BF704730B511F0004502D5404261EB41014FF4806404F132045FEA915C3FF4DCAE4FF003025FEADC0C18BFF5
:401FC00003325FEADC0C18BF033202EBDC02C2F1200300FA03FC20FA02F001FA03FE40EA0E0021FA02F11444C1E600BF70B54FF0FF0C4CF4E06C1CEA11541DBF1CEA135519
:4020000094EA0C0F95EA0C0F00F0DEF82C4481EA030621EA4C5123EA4C5350EA013518BF52EA033541F4801143F4801338D0A0FB02CE4FF00005E1FB02E506F00042E0FB97
:4020400003E54FF00006E1FB03569CF0000F18BF4EF0010EA4F1FF04B6F5007F64F5407404D25FEA4E0E6D4146EB060642EAC62141EA55514FEAC52040EA5E504FEACE2EFB
:40208000B4F1FD0C88BFBCF5E06F1ED8BEF1004F08BF5FEA500E50F1000041EB045170BD06F0004646EA010140EA020081EA0301B4EB5C04C2BFD4EB0C0541EA045170BDD4
:4020C00041F480114FF0000E013C00F3AB8014F1360FDEBF002001F0004170BDC4F10004203C35DA0C341BDC04F11404C4F1200500FA05F320FA04F001FA05F240EA0200AC
:4021000001F0004221F0004110EBD37021FA04F642EB06015EEA430E08BF20EAD37070BDC4F10C04C4F1200500FA04F320FA05F001FA04F240EA020001F0004110EBD3708D
:4021400041F100015EEA430E08BF20EAD37070BDC4F1200500FA05F24EEA020E20FA04F301FA05F243EA020321FA04F001F0004121FA04F220EA020000EBD3705EEA430EE5
:4021800008BF20EAD37070BD94F0000F0FD101F00046400041EB010111F4801F08BF013CF7D041EA060195F0000F18BF704703F00046520043EB030313F4801F08BF013D99
:4021C000F7D043EA0603704794EA0C0F0CEA135518BF95EA0C0F0CD050EA410618BF52EA4306D1D181EA030101F000414FF0000070BD50EA410606BF1046194652EA4306DB
:4022000019D094EA0C0F02D150EA013613D195EA0C0F05D152EA03361CBF104619460AD181EA030101F0004141F0FE4141F470014FF0000070BD41F0FE4141F4780170BD36
:4022400070B54FF0FF0C4CF4E06C1CEA11541DBF1CEA135594EA0C0F95EA0C0F00F0A7F8A4EB050481EA030E52EA03354FEA013100F088804FEA03334FF0805545EA131329
:4022800043EA12634FEA022245EA111545EA10654FEA00260EF000419D4208BF964244F1FD0404F5407402D25B084FEA3202B61A65EB03055B084FEA32024FF480104FF475
:4022C000002CB6EB020E75EB030E22BFB61A754640EA0C005B084FEA3202B6EB020E75EB030E22BFB61A754640EA5C005B084FEA3202B6EB020E75EB030E22BFB61A7546AC
:4023000040EA9C005B084FEA3202B6EB020E75EB030E22BFB61A754640EADC0055EA060E18D04FEA051545EA16754FEA06164FEAC30343EA52734FEAC2025FEA1C1CC0D1D6
:4023400011F4801F0BD141EA00014FF000004FF0004CB6E711F4801F04BF01430020B4F1FD0C88BFBCF5E06F3FF6AFAEB5EB030C04BFB6EB020C5FEA500C50F1000041EBC5
:40238000045170BD0EF0004E4EEA113114EB5C04C2BFD4EB0C0541EA045170BD41F480114FF0000E013C90E645EA060E8DE60CEA135594EA0C0F08BF95EA0C0F3FF43BAF87
:4023C00094EA0C0F0AD150EA01347FF434AF95EA0C0F7FF425AF104619462CE795EA0C0F06D152EA03353FF4FDAE1046194622E750EA410618BF52EA43067FF4C5AE50EA7D
:4024000041047FF40DAF52EA43057FF4EBAE12E74FEA410212F5001215D211D56FF47873B3EB625212D94FEAC12343F0004343EA505311F0004F23FA02F018BF40427047E0
:402440004FF00000704750EA013005D111F0004008BF6FF0004070474FF00000704700BF4A0011D212F5001211D20DD56FF47873B3EB62520ED44FEAC12343F0004343EAC5
:40248000505323FA02F070474FF00000704750EA013002D14FF0FF3070474FF0000070470E4B70B51E460E4C0025E41AA410A54204D056F8253098470135F8E700F02EFBE6
:4024C000084B094C1E46E41AA4100025A54204D056F8253098470135F8E770BD282B0000282B0000282B0000302B000010B5431E0A44914204D011F8014B03F8014FF8E78C
:4025000010BD03460244934202D003F8011BFAE7704700000000000040510040300000000140001000140140000800400140000A004C014000020050014020003F065B4F80
:40254000666D7D077F6F777C395E7971000000000000000000000000004080003F065B4F666D7D077F6F00000048000000777C585E79713D74101E763855545C7367506DAA
:40258000781C1C1D766E5B000000000800777C585E79713D74101E763855545C7367506D781C1C1D766E5B0000000000240000000000000000000012001200003F06DBCF08
:4025C000E6EDFD07FFEFF78F390FF9F100000200000000000C213F00200000002400000000000000000000000000001000001200120000000012000C00050900000808003C
:40260000120024282D1524000000000000000000000000000010000C1210000000080000120020102D1524000000000000302000000000200000C00000C000003F06DBCF09
:40264000E6EDFD07FFEF000000C8008300F78F390FF9F1BDF6091E703836363FF33FF3ED013E3036000009000000000800F7FCD8DEF9F1EFF4001E7000D4D4DCF33FD0ED26
:40268000C01C101C000009000000000090000303030303000303034A00480303FF0C773F8CBBFB0FFF8FCF3FF33FF3C300000800000000003084FF0080030000900003035F
:4026C00003030300030300000003004200034A0048030302034800310014240003202303480090A0B4549000000000000041410149814B494140486A484343410949422203
:402700004B408040B44981000000000000C08000000000800000000000000000FF0C773F8CBBFB0FFF8F00000030000700CF3FF33FF3C3FBCC337CC0F0CCCCFFC7FFC7BB3E
:4027400003FCC0CC00003300000000300070E060606002A1C000200000480860C19100100070407800A0200000000000FFFEFFFDFFFBFFF7FFEFFFDFFFBFFF7F3F065B4F9E
:40278000666D7D077F6F777C395E7971000000000000000000000000004080003F065B4F666D7D077F6F00000048000000777C585E79713D74101E763855545C7367506D68
:4027C000781C1C1D766E5B000000000800777C585E79713D74101E763855545C7367506D781C1C1D766E5B0000000000240000000000000000000012001200003F06DBCFC6
:40280000E6EDFD07FFEFF78F390FF9F100000200000000000C213F00200000002400000000000000000000000000001000001200120000000012000C0005090000080800F9
:40284000120024282D1524000000000000000000000000000010000C1210000000080000120020102D1524000000000000302000000000200000C00000C000003F06DBCFC7
:40288000E6EDFD07FFEF000000C8008300F78F390FF9F1BDF6091E703836363FF33FF3ED013E3036000009000000000800F7FCD8DEF9F1EFF4001E7000D4D4DCF33FD0EDE4
:4028C000C01C101C000009000000000090000303030303000303034A00480303FF0C773F8CBBFB0FFF8FCF3FF33FF3C300000800000000003084FF0080030000900003031D
:4029000003030300030300000003004200034A0048030302034800310014240003202303480090A0B4549000000000000041410149814B494140486A4843434109494222C0
:402940004B408040B44981000000000000C08000000000800000000000000000FF0C773F8CBBFB0FFF8F00000030000700CF3FF33FF3C3FBCC337CC0F0CCCCFFC7FFC7BBFC
:4029800003FCC0CC00003300000000300070E060606002A1C000200000480860C19100100070407800A0200000000000FFFEFFFDFFFBFFF7FFEFFFDFFFBFFF7F000000004B
:4029C0000800880000000000010000000800880000000000020000000800880000000000030000000800880000000000040000000800880000000000050000000800880068
:402A0000000000000600000008008800000000000700000008008800000000000000000028000000F9FF1F00000000DE0100000028000000F9FF1F00000020DE020000000C
:402A400028000000F9FF1F00000040DE0300000028000000F9FF1F00000060DE0400000028000000F9FF1F00000080DE0500000028000000F9FF1F000000A0DE0600000010
:402A80000000000000000000000000000700000000000000000000000000000008000000000000000000000000000000090000000000000000000000000000000A000000F4
:402AC0000000000000000000000000000B0000000000000000000000000000000C0000000000000000000000000000000D0000000000000000000000000000000E000000A4
:402B00000000000000000000000000000F000000000000000000000000000000F8B500BFF8BC08BC9E4670474D00000001050000F8B500BFF8BC08BC9E467047290000000C
:402B4000502B00000881FF1F38000000B001000000000000FFFEFFFDFFFBFFF7FFEFFFDFFFBFFF7FFFFEFFFDFFFBFFF7FFEFFFDFFFBFFF7FFFFFFFFF7F8000003F0000002E
:402B8000FFFF000000000000000000000000000000000000000000000000000000000000000000000000000000000000000000000000000000000000000000000000000017
:402BC00000000000000000000000000000000000000000000000000000000000000000000000000000000000000000000000000000000000000000000000000000000000D5
:402C00000000000000000000000000000000000000000000000000000000000000000000000000000000000000000000000000000000000000000000000000000000000094
:402C40000000000000000000000000000000000000000000000000000000000000000000000000000000000000000000000000000000000000000000000000000000000054
:402C80000000000000000000000000000000000000000000000000000000000000000000000000000000000000000000000000000000000000000000000000000000000014
:020000040003F7
:0200000480007A
:400000000C5200400503014009050140310601402E07014004090140040A01400F0B0140341401403C150140221601403517014001190140031B01400A40014018410140A4
:40004000114201400F4301400A45014010460140084701400D48014021490140144C0140134D01400450014002510140003201A608C409A01055119C186919AA608461C845
:40008000781A793386019708A340AB40AF04804083088F8096019708A340E240EC08EE0102020B020E03110115021B0224032A0132033503580459045B045F01810283043A
:4000C000860189018F01A104A201A302B106B501B601BF01C012C660C750C828C9FFCAFFCBFFCD10CE70CF0FD008D201D804D904DA04DB04DF01E010E1BCE210E358E4900C
:40010000E55802200402070213021520170418011A011D082044251027042B403620370A380139603D20400550015110522069406B026C106E806F887440801086409440E0
:4001400096019708A340A440A508A788AC40B508C094C468CA01CCE0CE2DD00CEE12AD09B010E80AEE025B045F01DB04DF01681069916C02708071087208840286088910E9
:400180008C808D40E008E402EC08EE01050207010D010F02120117041F0428013401350337043F10405245504706481249FF4AFF4BFF4D104E704F0F500852015804590490
:4001C0005A045B045C115D115F01601061BC6210635864906558800389028E03910196019E029F02AB02B103B203D804D904DB04DC11DF0107410A800C88100818041F045B
:400200002002222027402C083008324037413A083B403F10400448814B4050086A806B016D156E4074107588768081888280841089158E609310968097089A08A409A8101A
:40024000A940AB20AD40AE08AF01B020B110B302B740C090C2A8C402CA20CC9ACE2AD004D208E2B0E680EA10EC0CEE200C010E021201130317021B01230124022A023003A8
:40028000350336033A82580459045B045F018B028E0190019202940297019F03A301AA02B003B303BA02D804D904DB04DC11DF01004007020A800B100E80100815201708C6
:4002C000184019011E801F802310270829012F80300832403620370A3B1069506A066C506F0A7020714072607410776182408308860188108A048C408E20912097089B025A
:400300009F08A220A401B001C081C21CC462CA81CCEACE04E402E640EA80E4B2E440E880EC8C13401D013A083D103F024120C440C620CEE0D01003803A043D4053085501CD
:4003400058185F02621065018520934095109E08A520A901AF01C010CE60D4A0D6E0D8C0E210E820EE105020814083028C08934095509C189D019E1C9F02A708A901AF8003
:40038000D420E6A0EC10EE8081018708934095109D019E08A420A708AC10AE10B604E220E640EA40EE405040530254815B085C0261026780D407D607D803848288018C40B2
:4003C0008F08949097809C029F08A320A481A502A702A810AF20E001E40A9410A320A640AD02AE40AF40B302EC0150045302550980068F1093409E08A420B110D4E0D62009
:40040000E220E68053105442598060086140650166407108771080088109864089C08B108E089B109E08A042A908AB02AC20AF40B040B501D4E0D6E0D8C0DC80DE20E2B03B
:40044000E620EAE0EC405704580861026640670870027E018601880289028C089410A320A640D402D603D803DC01DE04E40D18101E8074087B228F029410A008A320A64040
:40048000AB04AF04B008B240C60CDC01DE06E402E801EC0100010A0110031A0310AA110A01FEFE00FE00000002CDCD00CD000000003F3F003F00000000F4F400F4000000D3
:4004C00000FFFF00FF00000000FFFF00FF000000000200000005000000000000000000000000000000000000000000000000000000000000000000000000000000000000FB
:4005000000000000000000000000000000000000000000000000000000000000000000000000000000000000000000000000000000000000000000000000000000000000BB
:40054000000000000000000000000000000000000000000000000000000000000000000000000000000000000000000000000000000000000000000000000000000000007B
:40058000000000000000000000000000000000000000000000000000000000000000000000000000000000000000000000000000000000000000000000000000000000003B
:4005C00000000000000000000000000000000000000000000000000000000000000000000000000000000000000000000000000000000000000000000000000000000000FB
:0200000490006A
:0400000000004005B7
:0200000490105A
:04000000BC90ACAF55
:0200000490303A
:0200000042DAE2
:0200000490402A
:4000000000000000000000000000000000000000000000000000000000000000000000000000000000000000000000000000000000000000000000000000000000000000C0
:400040000000000000000000000000000000000000000000000000000000000000000000000000000000000000000000000000000000000000000000000000000000000080
:400080000000000000000000000000000000000000000000000000000000000000000000000000000000000000000000000000000000000000000000000000000000000040
:4000C0000000000000000000000000000000000000000000000000000000000000000000000000000000000000000000000000000000000000000000000000000000000000
:0200000490501A
:0C00000000012E16106900012E2753434A
:00000001FF