:4000000000800020110000009D0700009D07000008B5044B1A6803F53F5302331A6000F0BFFB00BFFA46004010B5054C237833B9044B13B10448AFF300800123237010BD75
:400040004881FF1F00000000C0280000084B10B51BB108480849AFF300800848036803B910BD074B002BFBD0BDE81040184700BF00000000C02800004C81FF1F0881FF1FF1
:400080000000000010B500203049314BC3E900010F22304B1A804FF4C8522F4B1A8062B601F0E4FC01F052FD01F034F800F030FE00232A4A13702A4A1370FF20782100F0E5
:4000C00053F9082404E0E0B2042100F07FFF0134112CF8DD0024234B1B688BB9214B5B6873B9204B9B685BB91E4BDB6843B91D4B1B692BB91B4B5B6913B91A4B9B6953B127
:4001000000F032F8174B00221A605A609A60DA601A615A619A61114B1B7813B1012B08D00EE0002000F032F900F0AEF900F0FCFA06E0002000F05CF900F0A6F900F0F4FA73
:40014000204600F07DF90446C5E700BF00002A404882FF1F0882FF1F0082FF1F3A82FF1F1683FF1F6481FF1F10B55B4C2368626843EA0223594A1380A368E26843EA0223E0
:40018000574A13802369606943EA002002F026F84FA3D3E9002302F097F8524BC3E90001A369E26943EA02234F4A13804F4B1A68596842EA01224E490A809A68D96842EA2C
:4001C00001224C490A801A69596942EA01224A490A801A8BDB6942EA032348490B80484B1968586841EA0021464801809968D86841EA0021444801801969586941EA00215D
:4002000042480180DB6942EA0322414B1A80414B1A68596842EA01223F490A809A68D96842EA01223D490A801A69596942EA01223B490A809A69DB6942EA0323394A1380D5
:40024000394B1A68596842EA012238490A809A68D96842EA012236490A801A69596942EA012234490A809A69DB6942EA0323324A1380324B1968324A11805968314A1180A7
:400280009A68D96842EA01222F490A801A695B6942EA03232D4A13802D4B1A6801322D490A809A68D96842EA01222B490A801A69596942EA012229490A80DA69284B1A806A
:4002C0000122284B1A60002010BD00BFAFF300807B14AE47E17A843F7482FF1F0082FF1FC882FF1F4882FF1FCE82FF1FF482FF1FCA82FF1F3882FF1F9482FF1FC082FF1FA2
:400300001882FF1FC682FF1F0682FF1F0882FF1F1483FF1FD881FF1F4082FF1FC282FF1FCC82FF1FD082FF1F5482FF1F3E82FF1FF881FF1F0482FF1F5082FF1FD482FF1F96
:40034000FE81FF1FC482FF1F0282FF1FFA81FF1F9882FF1F3C82FF1FFC81FF1F4282FF1FD282FF1F8881FF1F70B505460E46002404E0E8B2E1B200F0DBFF01340C2CF8DD12
:40038000F0B2002100F0E8FC002070BD10B50446134BB3F90000002104220B4600F0E4FE104BD3E9000100220F4B01F08DFF02F025FA05210422002300F0D6FE0F20012130
:4003C00000F004FE094B18880A210422002300F0CBFEE0B2002100F0B1FC002010BD00BF0082FF1F4882FF1F000059403882FF1F10B504460F4B1888002104220B4600F064
:40040000B3FE0D4B188805210422002300F0ACFE0F20012100F0DAFD084B18880A210422002300F0A1FEE0B2002100F087FC002010BD00BF0882FF1FC682FF1FFA81FF1F83
:4004400010B5044601F082FD9CB9012811D10C4B1B781BB901220B4B1A7004E0012B02D10022084B1A70074B1A78054B1A70012403E0012C01D100B90024204610BD00BF66
:400480001683FF1F3A82FF1F10B5A34B19888AB2A2F5DA53183B9BB2B3F5FA7F2BD20820042100F093FD0920042100F08FFD0A20042100F0B1FD0B20042100F0ADFD0C20FF
:4004C000042100F0A9FD0D20042100F0A5FD0E20042100F0A1FD0F20042100F09DFD1020042100F099FD1120042100F095FD00228A4B1A6002E1A2F5EA530C3B9BB2B3F587
:40050000FA7F2BD20820042100F060FD0920042100F05CFD0A20042100F058FD0B20042100F054FD0C20042100F076FD0D20042100F072FD0E20042100F06EFD0F20042188
:4005400000F06AFD1020042100F066FD1120042100F062FD0022714B1A60CFE0A2F5FA539BB2B3F5FA7F2BD20820042100F02EFD0920042100F02AFD0A20042100F026FD52
:400580000B20042100F022FD0C20042100F01EFD0D20042100F01AFD0E20042100F03CFD0F20042100F038FD1020042100F034FD1120042100F030FD0022584B1A609DE08D
:4005C000A2F50453343B9BB2B3F5FA7F2BD20820042100F0FBFC0920042100F0F7FC0A20042100F0F3FC0B20042100F0EFFC0C20042100F0EBFC0D20042100F0E7FC0E20FA
:40060000042100F0E3FC0F20042100F0DFFC1020042100F001FD1120042100F0FDFC00223E4B1A606AE0A2F50C52283A92B2B2F5FA7F2BD20820042100F0C8FC09200421AF
:4006400000F0C4FC0A20042100F0C0FC0B20042100F0BCFC0C20042100F0B8FC0D20042100F0B4FC0E20042100F0B0FC0F20042100F0ACFC1020042100F0A8FC11200421D6
:4006800000F0A4FC0022254B1A6037E00AB242F21B539A4220DD224B1A68224B1B689A421ADD1E4B1B6853B91020042100F0DCFC1120042100F0D8FC0122184B1A60082443
:4006C00004E0E0B2042100F0CFFC0134112CF8DD0022134B1A6011E009B241F65733994206DD0BE0E0B2042100F096FC013400E00824112CF6DD0022084B1A60084A136807
:400700000133136042F21072934202DD0022044B1A60002010BD00BF0082FF1F8081FF1F8481FF1F1081FF1F38B5194B1B88194AD2E90045D72B04DD0020042100F046FCCF
:4007400003E00020042100F067FC0120042100F063FC0220042100F05FFC2046294600220D4B02F023F820B10320042100F02EFC03E00320042100F04FFC0420014600F087
:400780004BFC0520042100F021FC002038BD00BF3882FF1F4882FF1F00002840FEE700BF08B5104E104D16E029686B68AC68002204E051F8040B43F8040B0432A242F8D18A
:4007C000E868002203E0002143F8041B04328242F9D11035013E002EE6D102F037F8FFF751FCFEE701000000EC2E000008B5134A134B1A60134A136843F40073136000238E
:400800000AE0032B03D8104A52F8231000E00F490F4A42F8231001332F2BF2D90D4B1A780D4B1A700A4A0D4B1A6000F0C3F800F02BFE00220A4B1A6008BD00BF0004FA0569
:400840000CED00E014ED00E0000000009D0700000080FF1FBC7600400481FF1F08ED00E00081FF1FFEE700BFF0B40022174611E050F82760F3B226F0FF0608E001EB420591
:4008800011F812406D78A5550132013BDBB2002BF4D101371A2FEBD9F0BC7047064B1B78DBB203F00701054A11701B09013213704422034B1A707047CF0100496E58004040
:4008C0007658004008B50A46002101F0F0FF08BD38B54FF49C722B4B1A8018232A4A137040F21A61023211800232137047F22F52264B1A80192502331D70022203F27623F7
:400900001A7008224FF040231A70032203F500731A701F4B1B78DBB21E4A137010221E4B1A8041F25122023B1A8000240CE01B4B1B7803F0010343EA440404F003044FF4E3
:40094000F07000F091FD013D0DB1032CEFD115B90320FFF787FF124B4FF480721A8007221A7000220F490A704820023108701A700222033B1A700C4A137843F00703137044
:4009800038BD00BF80400040824000408840004008010049A146004022420040254200400440004006400040A243004008B501F073FF08BD38B572B63F4A137843F004033E
:4009C000137000240CE03D4963001A1952000A4423445B00C8589188FFF774FF0134E4B2052CF0D94FF090403549FFF73DFF35480421FFF767FF34480421FFF763FF33484E
:400A000033490422FFF7D2FF32480421FFF75AFF31480421FFF756FF304831490422FFF7C5FF304A137843F0020313701032137843F0020313702C4C237843F04003237040
:400A4000A2F58632513A137843F010031370274827490822FFF7AAFF264827490822FFF7A5FF264826490822FFF7A0FF254826490822FFF79BFF254825490822FFF796FF3C
:400A8000244825490822FFF791FF244A137843F008031370224D61232B70FFF719FFC1232B7001221F4B1A70FFF7F8FE1E4821460E22FFF77BFF38BDE8460040C428000018
:400AC0006C000048007600400876004010760040DC040048187600402076004028760040E004004803500140A043004002510040AC040048C2510040B4040048F25100401A
:400B0000BC04004812510040C404004822510040CC04004832510040D4040048224300400048004004000840B043004010B50120014641F6FF724FF4804300F019FC474B2E
:400B40001870FF2808D13BE000F030FD434B234418710134E4B200E00024012CF4D9002415E014F0010F08D13C4B1A191079012152790B4600F034FD07E0384B1A191079A0
:400B8000012152790B4600F02BFD0134E4B2002CE7D0324B587901211A790B4600F020FD00240BE02D4B23442D492144187989B246F27B4200F028FD0134E4B2012CF1D96F
:400BC0000120014641F6FF724FF4804300F0EEFB224B9871FF2808D121E000F0E7FC1F4B234418720134E4B200E00024002CF4D01A4B1A7A10460121052300F0F1FC002408
:400C00000BE0164B234417492144187A89B246F27A4200F0F9FC0134E4B2002CF1D00120014641F6FF724FF4804301F071F90B4B5872FF2810D000F0B9FC0246074CA072F4
:400C400001210B4600F0CCFC04F10C01A07A89B246F2274200F0D8FC10BD00BF9081FF1F1481FF1F1883FF1F10B50D4C2078217900F06CFCA079217A00F068FC607AA17AC1
:400C800000F064FC2078012100F018FCA079012100F014FC607A012100F010FC10BD00BF9081FF1F08B5FFF7DFFF0023044A137010321370012350321370024A537308BDEE
:400CC000176400409081FF1F002304E00021034AD1540133DBB2002BF8D070471883FF1F08B5FFF7F1FF094B9B7B23B9FFF71EFF0122064B9A73002305E0044A1A44FF21FB
:400D000011730133DBB2002BF7D008BD9081FF1F08B5054BDB7B23B9FFF7E2FF0122024BDA73FFF7BFFF08BD9081FF1F00F00F00014B185C704700BFE8280000092807D8B8
:400D400031B910B50C46FFF7F1FF024B185510BD704700BF1883FF1F10B4044628B94B00DBB20133084AD05408E04B00DBB20133064A1A4492F83002034AD054044B1944EA
:400D80000C735DF8044B70471481FF1FE82800009081FF1F70B50120014641F6FF724FF4804300F023FB6A4B1870FF2808D13BE000F0FCFB664B234418710134E4B200E093
:400DC0000024092CF4D9002415E014F0010F08D15F4B1A191079012152790B4600F000FC07E05B4B1A191079012152790B4600F0F7FB0134E4B2082CE7D9554B587B01217A
:400E00001A790B4600F0ECFB00240BE0504B234450492144187989B246F2764200F0F4FB0134E4B2092CF1D90120014641F6FF724FF4804300F0F8FA454B9873FF280FD1E9
:400E400064E000F0B3FB424D2544287400F0AEFB287600F0ABFB85F820000134E4B200E00024042CEDD9002418E0394E3519287C01212A7E212300F0B3FB287E012195F837
:400E80002020212300F0ACFB0134264495F820000121327C052300F0A3FBE4B2032CE4D92B4C207D0121227F212300F099FB207F012194F82420212300F092FB94F8240022
:400EC0000121227C052300F08BFB00241CE0204D254421492144287C89B246F2775200F093FB1E492144287E89B246F2755200F08BFB1B49214495F8200089B246F276529E
:400F000000F082FB0134E4B2042CE0D90120014641F6FF724FF4804300F0B2FB0C4B83F82500FF2812D000F041FB0246084C84F826000521012300F053FB04F1280194F841
:400F4000260089B246F2255200F05EFB70BD00BFA081FF1F2481FF1F1C83FF1F2C83FF1F2483FF1F10B50E4C2078217900F0EEFAA07B217C00F0EAFA94F8250094F82610B3
:400F800000F0E4FA2078012100F098FAA07B012100F094FA94F82500012100F08FFA10BDA081FF1F08B5FFF7DDFF0023054A13701032137001234F321370034A82F82D307F
:400FC00008BD00BF15650040A081FF1F04291BD8072806D8012383400C48425C1343435470470F2808D80838C0B2012383400848425C1343435470471038C0B201238340E7
:401000000448425C13434354704700BF1C83FF1F2C83FF1F2483FF1F04291ED8072807D8012383400D48425C22EA0303435470470F2809D80838C0B2012383400848425C0A
:4010400022EA0303435470471038C0B2012383400448425C22EA0303435470471C83FF1F2C83FF1F2483FF1F04291BD8072806D8012383400C48425C5340435470470F28B8
:4010800008D80838C0B2012383400848425C5340435470471038C0B2012383400448425C53404354704700BF1C83FF1F2C83FF1F2483FF1F002308E000220549CA54054987
:4010C000CA540549CA540133DBB2042BF4D970471C83FF1F2C83FF1F2483FF1F08B5FFF7E9FF0B4B93F82E302BB9FFF753FE0122074B83F82E20002306E0054A1A44FF218A
:4011000082F828100133DBB2042BF6D908BD00BFA081FF1F08B5064B93F82F302BB9FFF7DDFF0122024B83F82F20FFF73BFF08BDA081FF1F00F00F00014B185C704700BF2A
:40114000282B000000F00F0300090238C0B2052805D8044A02EB00100344187C70470020704700BF282B00002DE9F04782B00D4614461F4600230093019304290AD9092978
:4011800003D84D1FEDB2012605E0A1F10A05EDB2022600E00026002803DB02464FF0000802E042424FF00108234614E05C48A0FB0210C008814600EB80004000101A03F186
:4011C000FF3AC0B2FFF7B6FF02AB534403F8080C4A465FFA8AF3002BE8D1022F32D1B8F1000F33D02D20FFF7ADFF8DF800002DE0994602A9194411F8081C3F2915D0B8F182
:40120000000F23D03BB92D20FFF79CFF02AB994409F8080C1AE003F1FF382D20FFF792FF02AB434403F8080C10E0611E8A4206D002A98944002109F8081C0132D2B2013345
:40124000DBB201E000221346A342D1D3012F62D11CE002AA1A4412F8082CA2B1042D10D8012E06D016B1022E06D008E02D494A5507E02D494A5504E02C494A5501E02949D3
:401280004A550135EDB20133DBB200E00023A342DFD316E0012E07D016B1022E08D00BE00022204B5A550AE000221F4B5A5506E000221E4B5A5502E000221A4B5A550135DA
:4012C000EDB2A542E6D328E06319013B042B20D8012E0AD016B1022E0ED014E002AA224412F8091C0F4AD15413E002AA224412F8091C0D4AD1540CE002AA224412F8091C5A
:401300000A4AD15405E002AA224412F8091C054AD154013CE4B2002CD6D102B0BDE8F087CDCCCCCC1C83FF1F2C83FF1F2483FF1F10B4044628B94B00DBB20133094AD05434
:4013400008E04B00DBB20133074A1A4492F83002044AD054054B194481F828405DF8044B704700BF2481FF1F282B0000A081FF1FF0B583B086460F4616461D460A4C012070
:40138000207000230093019371463A4600F0EAF8207831462A4600F0BFF82078022100F0A9F8207803B0F0BD3481FF1FF0B583B084468E4617461E460B4C022525700023A0
:4013C000009301932846614672462B4600F0CAF820783946324600F09FF82078294600F089F8207803B0F0BD3581FF1FF0B583B086460F4616461D460A4C04202070002397
:401400000093019371463A4600F0ACF8207831462A4600F081F82078022100F06BF8207803B0F0BD3681FF1FF0B583B086460F4616461D460B4C05232370002200920192E6
:40144000184671463A4600F08DF8207831462A4600F062F82078022100F04CF8207803B0F0BD00BF3781FF1F0230800803D000BF01380046FCD17047EFF3108072B670477D
:4014800080F31088704700BF0B4A7F2313708021517007E0DA0002F1804202F5F042013BDBB21370002BF5D1DB0003F1804303F5F04300221A7070473881FF1F172815D8D0
:4014C00031B103010A495A5C42F020025A5405E0030107495A5C02F0DF025A540001044A835C43F00103835400207047012070471070004017280BD80001064A835C03F09B
:40150000F10301F0070143EA4101815400207047012070471070004041F6FF73994201D14FF4005141F6FF739A4201D14FF40052172808D8C00000F1804000F5EC40818083
:40154000C280002070470120704700BF172805D8034B03EB0010417200207047012070471070004017281BD810B4C00000F1804404F5EC44D201D2B201F07F0111432170F0
:401580009DF804201201D2B203F00F03134363709DF8083003F00F03A3700020E07001E0012070475DF8044B704700BF10B5FFF763FF0A4B5B78182B0BD9084A1478013BFF
:4015C0005370E30003F1804303F5F0431B78137000E0FF24FFF754FF204610BD3881FF1F10F0800F0CD111F4704F0BD1C00000F1804000F5F04001808270C37000207047D8
:40160000012070470120704710F0800F08D1C00000F1804000F5F0408180C280002070470120704701BE704770B504460E46074B1D681F2802D90020FFF7F4FF04F01F04B8
:40164000103455F8240045F8246070BD08ED00E038B504460D46072902D90020FFF7E2FF1F2C02D90020FFF7DDFF04F01F0000F1604000F564406D01EDB2057038BD00BFDB
:40168000F0B583B086460F4616461D460A4C0320207000230093019371463A46FFF762FF207831462A46FFF737FF20780221FFF721FF207803B0F0BD4081FF1F08B5134A24
:4016C000136823F0010313604FF4F04300E0013B23B10E4A126812F0010FF8D19BB14FF480320B4B1A60FFF7C7FE0A4A137803F0FE0313701032137803F0FE031370FFF776
:40170000BFFE002008BD012008BD00BF10A0004080E100E0A6430040064B1A7842F001021A701B7813F0010F01D1012070470020704700BF04A0004008B5FFF79DFE154AEF
:40174000137843F0010313701032137843F001031370FFF795FE41F201220F4B1A60FFF7DBFF4FF480320D4B1A600D4A136843F0010313604FF4106300E0013B23B1084ADF
:40178000126812F0010FF8D00BB9012008BD002008BD00BFA643004000A0004000E100E010A00040064B1A7802F0FE021A701B7813F0010F01D0012070470020704700BF89
:4017C00004A0004010F4004F07D1064B18801B889BB2834203D001207047022070470020704700BF16A0004050B90D4B5A7802F0EF025A705B7813F0100F0CD001207047A3
:40180000074B5A7842F010025A705B7813F0100F03D101207047002070470020704700BF14A0004030B4841EE4B20D2C28D88C1EE4B2052C02D92BBB012925D1032A25D8A3
:40184000824225D88A4225D8164C657805F0F005284360706478E4B284421DD10BB9002000E002204B01DBB29200D2B2134303430C4A13701278D2B29A420FD001200EE032
:4018800002200CE002200AE0022008E0022006E0022004E0022002E0012000E0002030BC704700BF14A0004050B90D4B1A7802F0EF021A701B7813F0100F0CD001207047B2
:4018C000074B1A7842F010021A701B7813F0100F03D101207047002070470020704700BF14A0004050B90D4B1A7802F0FE021A701B7813F0010F0CD001207047074B1A78C7
:4019000042F001021A701B7813F0010F03D101207047002070470020704700BF14A00040044B18801B889BB2834201D0012070470020704704A0004003785B01214A41684A
:4019400041F08011995003785B0199189A5802F07F12436823F080139A4228D183680B610278184B03EB421319698268914220D1C2685A610278134B03EB42135969C26806
:40198000914218D14FF0FF329A6102780D4B03EB42139A69B2F1FF3F0FD10022DA610278084B03EB4213DB694BB10120704701207047012070470120704701207047002022
:4019C000704700BFA0A0004001780901114A436843F4000343F008038B5003781B0199189B580D4A1A40436823F4000323F008039A420BD183684B600278064B03EB02132A
:401A00005A6883689A4203D001207047012070470020704720A00040F7007F0038B5002409E004EB44039B000E481844FFF7CCFF28B90134E4B2072CF3D9002500E0012539
:401A40004DB10DE0084800EB0410FFF775FF30B90134E4B200E000240F2CF3D900E00125284638BD682D0000C82D000008B5FFF703FD324A137843F00103137010321378CF
:401A800043F001031370FFF7FBFC2D4A137803F0FE0313704FF4F04300E0013B23B1284A127812F0010FF8D1002B3CD04FF48032244B1A6010202449FFF7B6FD1020072116
:401AC000FFF7C6FD1720FFF77DFE88B9FFF78CFE80B9032002210A460023FFF7A3FE58B9FFF7E2FE50B9FFF7FDFE48B1012308E0012306E0012304E0012302E0012300E039
:401B0000002393B9FFF78AFF88B941F20120FFF707FF70B90A4B00221A701B7813F0010F09D0012008BD012008BD012008BD012008BD012008BD002008BD00BFA643004032
:401B400010A0004080E100E00D1C000008B5074B1B7813B9FFF78AFF00E0002020B90122024B1A70FFF7E8FD08BD00BFD081FF1F08B50222034B5A70FFF714FEFFF79EFDEB
:401B800008BD00BF00A0004038B510221C4B5A700125002430E01B4B1B881D4228D06301194A9B5C13F0200F22D015F07F0F1CD0062C1DD8DFE804F004070A0D1013160019
:401BC00000F044F814E000F073F811E000F0A2F80EE000F0D1F80BE000F002F908E000F031F905E000F060F902E0204600F020F86D00ADB20134E4B20F2CCCD938BD00BFC7
:401C000000A0004008A00040A0A0004008B5074B5B7813F0020F01D0FFF7AAFF034B5B7813F0100F01D0FFF7AFFF08BD00A000404001054BC25C12F0010F03D0C25C42F0B5
:401C40000102C254704700BFA0A000400122124B1A60124B987800F00F00114B18600022104B1A600EE0032B02D9C3F10B0101E0C3F103010C4A515C0C4A42F823100133DA
:401C8000084A1360074B1B689842ECD8034A137843F00103137070476481FF1FA0A000408C81FF1FD481FF1FA8A000407482FF1F0122124B1A60124B987800F00F00114B24
:401CC00018600022104B1A600EE0032B02D9C3F10B0101E0C3F103010C4A515C0C4A42F823100133084A1360074B1B689842ECD8034A137843F00103137070476881FF1FA3
:401D0000C0A000408C81FF1FD481FF1FC8A00040F482FF1F0122124B1A60124B987800F00F00114B18600022104B1A600EE0032B02D9C3F10B0101E0C3F103010C4A515CA5
:401D40000C4A42F823100133084A1360074B1B689842ECD8034A137843F00103137070476C81FF1FE0A000408C81FF1FD481FF1FE8A000401882FF1F0122144B1A60144BA7
:401D8000987800F00F00134B18600022124B1A6011E0032B02D9C3F10B0201E0C3F1030202F1804202F52142117A0C4A42F823100133094A1360084B1B689842E9D8044ADA
:401DC000137843F001031370704700BF7081FF1F00A100408C81FF1FD481FF1FD881FF1F0122124B1A60124B987800F00F00114B18600022104B1A600EE0032B02D9C3F147
:401E00000B0101E0C3F103010C4A515C0C4A42F823100133084A1360074B1B689842ECD8034A137843F00103137070477481FF1F20A100408C81FF1FD481FF1F28A10040C7
:401E40005482FF1F0122124B1A60124B987800F00F00114B18600022104B1A600EE0032B02D9C3F10B0101E0C3F103010C4A515C0C4A42F823100133084A1360074B1B6859
:401E80009842ECD8034A137843F00103137070477881FF1F40A100408C81FF1FD481FF1F48A10040D482FF1F0122124B1A60124B987800F00F00114B18600022104B1A6097
:401EC0000EE0032B02D9C3F10B0101E0C3F103010C4A515C0C4A42F823100133084A1360074B1B689842ECD8084A137843F00103137070477C81FF1F40A100408C81FF1FAB
:401F0000D481FF1F48A100409882FF1F60A10040F0B583B086460F4616461D460A4C0023237000930193184671463A46FFF71AFB207831462A46FFF7EFFA20780221FFF7F2
:401F4000D9FA207803B0F0BD4181FF1F014B1878704700BF6565004081F0004102E000BF83F0004330B54FEA41044FEA430594EA050F08BF90EA020F1FBF54EA000C55EA22
:401F8000020C7FEA645C7FEA655C00F0E2804FEA5454D4EB5555B8BF6D420CDD2C4480EA020281EA030382EA000083EA010180EA020281EA0303362D88BF30BD11F0004F25
:401FC0004FEA01314FF4801C4CEA113102D0404261EB410113F0004F4FEA03334CEA133302D0524263EB430394EA050F00F0A780A4F10104D5F1200E0DDB02FA0EFC22FAC5
:4020000005F2801841F1000103FA0EF2801843FA05F359410EE0A5F120050EF1200E012A03FA0EFC28BF4CF0020C43FA05F3C01851EBE37101F0004507D54FF0000EDCF178
:40204000000C7EEB00006EEB0101B1F5801F1BD3B1F5001F0CD349085FEA30004FEA3C0C04F101044FEA445212F5800F80F09A80BCF1004F08BF5FEA500C50F1000041EBB0
:40208000045141EA050130BD5FEA4C0C404141EB010111F4801FA4F10104E9D191F0000F04BF01460020B1FA81F308BF2033A3F10B03B3F120020CDA0C3208DD02F1140CEE
:4020C000C2F10C0201FA0CF021FA02F10CE002F11402D8BFC2F1200C01FA02F120FA0CFCDCBF41EA0C019040E41AA2BF01EB0451294330BD6FEA04041F3C1CDA0C340EDC27
:4021000004F11404C4F1200220FA04F001FA02F340EA030021FA04F345EA030130BDC4F10C04C4F1200220FA02F001FA04F340EA0300294630BD21FA04F0294630BD94F04C
:40214000000F83F4801306BF81F480110134013D4EE77FEA645C18BF7FEA655C29D094EA050F08BF90EA020F05D054EA000C04BF1946104630BD91EA030F1EBF002100209D
:4021800030BD5FEA545C05D14000494128BF41F0004130BD14F580043CBF01F5801130BD01F0004545F0FE4141F470014FF0000030BD7FEA645C1ABF194610467FEA655CFA
:4021C0001CBF0B46024650EA013406BF52EA033591EA030F41F4002130BD00BF90F0000F04BF0021704730B54FF4806404F132044FF000054FF0000150E700BF90F0000FCA
:4022000004BF0021704730B54FF4806404F1320410F0004548BF40424FF000013EE700BF42004FEAE2014FEA31014FEA02701FBF12F07F4393F07F4F81F06051704792F018
:40224000000F14BF93F07F4F704730B54FF4607401F0004521F0004120E700BF50EA010208BF704730B54FF000050AE050EA010208BF704730B511F0004502D5404261EBD1
:4022800041014FF4806404F132045FEA915C3FF4DCAE4FF003025FEADC0C18BF03325FEADC0C18BF033202EBDC02C2F1200300FA03FC20FA02F001FA03FE40EA0E0021FAE4
:4022C00002F11444C1E600BF70B54FF0FF0C4CF4E06C1CEA11541DBF1CEA135594EA0C0F95EA0C0F00F0DEF82C4481EA030621EA4C5123EA4C5350EA013518BF52EA033591
:4023000041F4801143F4801338D0A0FB02CE4FF00005E1FB02E506F00042E0FB03E54FF00006E1FB03569CF0000F18BF4EF0010EA4F1FF04B6F5007F64F5407404D25FEA71
:402340004E0E6D4146EB060642EAC62141EA55514FEAC52040EA5E504FEACE2EB4F1FD0C88BFBCF5E06F1ED8BEF1004F08BF5FEA500E50F1000041EB045170BD06F0004685
:4023800046EA010140EA020081EA0301B4EB5C04C2BFD4EB0C0541EA045170BD41F480114FF0000E013C00F3AB8014F1360FDEBF002001F0004170BDC4F10004203C35DA5B
:4023C0000C341BDC04F11404C4F1200500FA05F320FA04F001FA05F240EA020001F0004221F0004110EBD37021FA04F642EB06015EEA430E08BF20EAD37070BDC4F10C04F6
:40240000C4F1200500FA04F320FA05F001FA04F240EA020001F0004110EBD37041F100015EEA430E08BF20EAD37070BDC4F1200500FA05F24EEA020E20FA04F301FA05F212
:4024400043EA020321FA04F001F0004121FA04F220EA020000EBD3705EEA430E08BF20EAD37070BD94F0000F0FD101F00046400041EB010111F4801F08BF013CF7D041EA12
:40248000060195F0000F18BF704703F00046520043EB030313F4801F08BF013DF7D043EA0603704794EA0C0F0CEA135518BF95EA0C0F0CD050EA410618BF52EA4306D1D112
:4024C00081EA030101F000414FF0000070BD50EA410606BF1046194652EA430619D094EA0C0F02D150EA013613D195EA0C0F05D152EA03361CBF104619460AD181EA0301E6
:4025000001F0004141F0FE4141F470014FF0000070BD41F0FE4141F4780170BD70B54FF0FF0C4CF4E06C1CEA11541DBF1CEA135594EA0C0F95EA0C0F00F0A7F8A4EB050492
:4025400081EA030E52EA03354FEA013100F088804FEA03334FF0805545EA131343EA12634FEA022245EA111545EA10654FEA00260EF000419D4208BF964244F1FD0404F5ED
:40258000407402D25B084FEA3202B61A65EB03055B084FEA32024FF480104FF4002CB6EB020E75EB030E22BFB61A754640EA0C005B084FEA3202B6EB020E75EB030E22BFF2
:4025C000B61A754640EA5C005B084FEA3202B6EB020E75EB030E22BFB61A754640EA9C005B084FEA3202B6EB020E75EB030E22BFB61A754640EADC0055EA060E18D04FEACE
:40260000051545EA16754FEA06164FEAC30343EA52734FEAC2025FEA1C1CC0D111F4801F0BD141EA00014FF000004FF0004CB6E711F4801F04BF01430020B4F1FD0C88BF9E
:40264000BCF5E06F3FF6AFAEB5EB030C04BFB6EB020C5FEA500C50F1000041EB045170BD0EF0004E4EEA113114EB5C04C2BFD4EB0C0541EA045170BD41F480114FF0000EDD
:40268000013C90E645EA060E8DE60CEA135594EA0C0F08BF95EA0C0F3FF43BAF94EA0C0F0AD150EA01347FF434AF95EA0C0F7FF425AF104619462CE795EA0C0F06D152EAAD
:4026C00003353FF4FDAE1046194622E750EA410618BF52EA43067FF4C5AE50EA41047FF40DAF52EA43057FF4EBAE12E74FF0FF3C06E000BF4FF0010C02E000BF4FF0010CB4
:402700004DF804CD4FEA410C7FEA6C5C4FEA430C18BF7FEA6C5C1BD001B050EA410C0CBF52EA430C91EA030F02BF90EA020F0020704710F1000F91EA030F58BF994208BFBD
:4027400090422CBFD8176FEAE37040F0010070474FEA410C7FEA6C5C02D150EA013C07D14FEA430C7FEA6C5CD6D152EA033CD3D05DF8040B704700BF8446104662468C464E
:402780001946634600E000BF01B5FFF7B7FF002848BF10F1000F01BD4DF808EDFFF7F4FF0CBF012000205DF808FB00BF4DF808EDFFF7EAFF34BF012000205DF808FB00BF69
:4027C0004DF808EDFFF7E0FF94BF012000205DF808FB00BF4DF808EDFFF7CEFF94BF012000205DF808FB00BF4DF808EDFFF7C4FF34BF012000205DF808FB00BF4FEA4102BD
:4028000012F5001215D211D56FF47873B3EB625212D94FEAC12343F0004343EA505311F0004F23FA02F018BF404270474FF00000704750EA013005D111F0004008BF6FF0B7
:40284000004070474FF00000704700BF0E4B70B51E460E4C0025E41AA410A54204D056F8253098470135F8E700F02EFB084B094C1E46E41AA4100025A54204D056F82530ED
:4028800098470135F8E770BDD42E0000D42E0000D42E0000DC2E000010B5431E0A44914204D011F8014B03F8014FF8E710BD03460244934202D003F8011BFAE7704700009B
:4028C0000000000040510040300000000140001000140140000800400140000A004C014000020050014020003F065B4F666D7D077F6F777C395E79710000000000000000B6
:4029000000000000004080003F065B4F666D7D077F6F00000048000000777C585E79713D74101E763855545C7367506D781C1C1D766E5B000000000800777C585E79713DBB
:4029400074101E763855545C7367506D781C1C1D766E5B0000000000240000000000000000000012001200003F06DBCFE6EDFD07FFEFF78F390FF9F10000020000000000A9
:402980000C213F00200000002400000000000000000000000000001000001200120000000012000C0005090000080800120024282D15240000000000000000000000000033
:4029C0000010000C1210000000080000120020102D1524000000000000302000000000200000C00000C000003F06DBCFE6EDFD07FFEF000000C8008300F78F390FF9F1BD85
:402A0000F6091E703836363FF33FF3ED013E3036000009000000000800F7FCD8DEF9F1EFF4001E7000D4D4DCF33FD0EDC01C101C0000090000000000900003030303030037
:402A40000303034A00480303FF0C773F8CBBFB0FFF8FCF3FF33FF3C300000800000000003084FF00800300009000030303030300030300000003004200034A00480303025A
:402A8000034800310014240003202303480090A0B4549000000000000041410149814B494140486A48434341094942224B408040B44981000000000000C0800000000080A7
:402AC0000000000000000000FF0C773F8CBBFB0FFF8F00000030000700CF3FF33FF3C3FBCC337CC0F0CCCCFFC7FFC7BB03FCC0CC00003300000000300070E060606002A103
:402B0000C000200000480860C19100100070407800A0200000000000FFFEFFFDFFFBFFF7FFEFFFDFFFBFFF7F3F065B4F666D7D077F6F777C395E7971000000000000000022
:402B400000000000004080003F065B4F666D7D077F6F00000048000000777C585E79713D74101E763855545C7367506D781C1C1D766E5B000000000800777C585E79713D79
:402B800074101E763855545C7367506D781C1C1D766E5B0000000000240000000000000000000012001200003F06DBCFE6EDFD07FFEFF78F390FF9F1000002000000000067
:402BC0000C213F00200000002400000000000000000000000000001000001200120000000012000C0005090000080800120024282D152400000000000000000000000000F1
:402C00000010000C1210000000080000120020102D1524000000000000302000000000200000C00000C000003F06DBCFE6EDFD07FFEF000000C8008300F78F390FF9F1BD42
:402C4000F6091E703836363FF33FF3ED013E3036000009000000000800F7FCD8DEF9F1EFF4001E7000D4D4DCF33FD0EDC01C101C00000900000000009000030303030300F5
:402C80000303034A00480303FF0C773F8CBBFB0FFF8FCF3FF33FF3C300000800000000003084FF00800300009000030303030300030300000003004200034A004803030218
:402CC000034800310014240003202303480090A0B4549000000000000041410149814B494140486A48434341094942224B408040B44981000000000000C080000000008065
:402D00000000000000000000FF0C773F8CBBFB0FFF8F00000030000700CF3FF33FF3C3FBCC337CC0F0CCCCFFC7FFC7BB03FCC0CC00003300000000300070E060606002A1C0
:402D4000C000200000480860C19100100070407800A0200000000000FFFEFFFDFFFBFFF7FFEFFFDFFFBFFF7F00000000080088000000000001000000080088000000000067
:402D80000200000008008800000000000300000008008800000000000400000008008800000000000500000008008800000000000600000008008800000000000700000028
:402DC00008008800000000000000000028000000F9FF1F000000E0300100000028000000F9FF1F000000E0500200000028000000F9FF1F000000A040030000002800000038
:402E0000F9FF1F00000020400400000028000000F9FF1F00000060300500000028000000F9FF1F000000A0600600000028000000F9FF1F0000000020070000000000000098
:402E4000000000000000000008000000000000000000000000000000090000000000000000000000000000000A0000000000000000000000000000000B000000000000002C
:402E800000000000000000000C0000000000000000000000000000000D0000000000000000000000000000000E0000000000000000000000000000000F00000000000000DC
:402EC0000000000000000000F8B500BFF8BC08BC9E4670474D000000ED070000F8B500BFF8BC08BC9E46704729000000002F00000881FF1F40000000F00100000000000063
:402F000000000000FF00000088130000FFFEFFFDFFFBFFF7FFEFFFDFFFBFFF7FFFFEFFFDFFFBFFF7FFEFFFDFFFBFFF7FFFFFFFFF7F8000003F000000FFFF000000000000DD
:402F40000000000000000000000000000000000000000000000000000000000000000000000000000000000000000000000000000000000000000000000000000000000051
:402F80000000000000000000000000000000000000000000000000000000000000000000000000000000000000000000000000000000000000000000000000000000000011
:402FC00000000000000000000000000000000000000000000000000000000000000000000000000000000000000000000000000000000000000000000000000000000000D1
:403000000000000000000000000000000000000000000000000000000000000000000000000000000000000000000000000000000000000000000000000000000000000090
:020000040003F7
:0200000480007A
:400000000C52004004030140080501403A0601403607014005090140040A01400E0B014031140140401501401C1601403317014001190140031B01400A40014014410140A0
:400040000D420140124301400A4501400E460140084701401048014022490140134C0140144D014004500140025101400032019608C009A41055119C186919AA608461C854
:40008000781A79339A04A304AA04AB048F889A04A304A480A880E240E640EE04050807040D0112031504160117081B021E0228032B022D0233033403350C3F10580459047A
:4000C0005B045C115F01850487028E018F019501A502A704AA01B306B401B701BF04C025C550C706C812C9FFCAFFCBFFCD10CE70CF0FD008D201D804D904DA04DB04DC1124
:40010000DD11DF01E010E1BCE210E358E490E55801400C080E400F011008172018041B101F2020022204252027202B102C082D803008372839403A043E403F08400448016E
:400140004B01500869406A406EA86F807480831086408D208E049A049E019F08A304A480A780AA01C001C2B0C442CA32CC62CE5AD004D208E240E404E640EE02AD09B010A7
:40018000E404E80AEE025B045F01DB04DF01681069916C027080710872088402860889108C808D40E008E402EE04020103010A020D010E030F02170225022A0132033603D2
:4001C00037033B805201580459045B045C115F018E0193039401A701AB02AD03B503B601C031C660C705C818C9FFCAFFCBFFCD10CE70CF0FD008D804D904DA04DB04DF015F
:40020000E010E1BCE210E358E490E5580011014007010F201008181019881D802001270429082F2A30083701380139404580470857385E406A806B016D846E206F807414C7
:400240007641820183808414861089448A408E408F04914096809B089D809F01A008A302A730A810AB20AD40AE80B080B150B420B640C08BC220C402CA72CC82CE09D050A3
:40028000D610E220E440E690EC08EE100C011202130116021C02270130033501580459045B045F0186028A018C018E028F029B019C029F03A701B203B703BA08D804D90427
:4002C000DB04DF0100100321070109800D800E800F20181019081E801F0221C0270829082F203240332037013980688069106A446C506D806F087020714173107410768173
:40030000772081018308871088108A048C4091409D809E019F08A008AB20AE04B210C087C2B1CA42CC8CCE08EA80E4B0E420E880ECE813801F013B083C103F084004C44072
:40034000C620CEE0D01002803A043E205308560258185D086201644094149708A704AB81C010CE60D4A0D6E0D8C0E880EC2050808C0C941497089C589D089E24A280A70C2B
:40038000AA03D420EA20EE208010828087088D088E20941097089C409D089E24A280A70CA880AC10E420E6C0EA20EE405040530254815B085C0261026780D407D607D803A7
:4003C000848288018C408F0894C097809C029F08A481A502A702A840E001E40A83809440A640AD02AE40AF40B302EC015004530255085F808004818086209E04AB04AF0430
:40040000B040D4E0D620E230E680EE301708531155105D8063426501664070027620810183018640874188028B108E048F0899809A209E04A110A908AB02AF80B510C420D0
:40044000D4E0D6E0D8C0DC80DE20E230E670EAE058085B105F046102670870027F02880289028C089440A380A640D401D603D803DC01DE04E40D18401E80738074087B80DC
:400480008B809440A008A380A640AF04B008B306B710C60CDC01DE06E404E801EC0700020A0210031A0310AA110A000001FEFE00FE00000002CFCD00CD000000003F3F0073
:4004C0003F00000000F4F400F400000000FFFF00FF00000000FFFF00FF000000000200000005000000000000000000000000000000000000000000000000000000000000E0
:4005000000000000000000000000000000000000000000000000000000000000000000000000000000000000000000000000000000000000000000000000000000000000BB
:40054000000000000000000000000000000000000000000000000000000000000000000000000000000000000000000000000000000000000000000000000000000000007B
:40058000000000000000000000000000000000000000000000000000000000000000000000000000000000000000000000000000000000000000000000000000000000003B
:4005C00000000000000000000000000000000000000000000000000000000000000000000000000000000000000000000000000000000000000000000000000000000000FB
:0200000490006A
:0400000000004005B7
:0200000490105A
:04000000BC90ACAF55
:0200000490303A
:0200000090244A
:0200000490402A
:4000000000000000000000000000000000000000000000000000000000000000000000000000000000000000000000000000000000000000000000000000000000000000C0
:400040000000000000000000000000000000000000000000000000000000000000000000000000000000000000000000000000000000000000000000000000000000000080
:400080000000000000000000000000000000000000000000000000000000000000000000000000000000000000000000000000000000000000000000000000000000000040
:4000C0000000000000000000000000000000000000000000000000000000000000000000000000000000000000000000000000000000000000000000000000000000000000
:0200000490501A
:0C00000000012E16106900012E28A08DB2
:00000001FF